{
  "_format": "hh-sol-artifact-1",
  "contractName": "DaoGovernor",
  "sourceName": "contracts/governance/DaoGovernor.sol",
  "abi": [
    {
      "inputs": [
        {
          "internalType": "contract IVotes",
          "name": "_token",
          "type": "address"
        },
        {
          "internalType": "contract TimelockController",
          "name": "_timeLockController",
          "type": "address"
        },
        {
          "internalType": "uint256",
          "name": "_votingDelay",
          "type": "uint256"
        },
        {
          "internalType": "uint256",
          "name": "_votingPeriod",
          "type": "uint256"
        },
        {
          "internalType": "uint256",
          "name": "_threshold",
          "type": "uint256"
        },
        {
          "internalType": "uint256",
          "name": "_quorumPercentage",
          "type": "uint256"
        }
      ],
      "stateMutability": "nonpayable",
      "type": "constructor"
    },
    {
      "inputs": [],
      "name": "Empty",
      "type": "error"
    },
    {
      "anonymous": false,
      "inputs": [
        {
          "indexed": false,
          "internalType": "uint256",
          "name": "proposalId",
          "type": "uint256"
        }
      ],
      "name": "ProposalCanceled",
      "type": "event"
    },
    {
      "anonymous": false,
      "inputs": [
        {
          "indexed": false,
          "internalType": "uint256",
          "name": "proposalId",
          "type": "uint256"
        },
        {
          "indexed": false,
          "internalType": "address",
          "name": "proposer",
          "type": "address"
        },
        {
          "indexed": false,
          "internalType": "address[]",
          "name": "targets",
          "type": "address[]"
        },
        {
          "indexed": false,
          "internalType": "uint256[]",
          "name": "values",
          "type": "uint256[]"
        },
        {
          "indexed": false,
          "internalType": "string[]",
          "name": "signatures",
          "type": "string[]"
        },
        {
          "indexed": false,
          "internalType": "bytes[]",
          "name": "calldatas",
          "type": "bytes[]"
        },
        {
          "indexed": false,
          "internalType": "uint256",
          "name": "startBlock",
          "type": "uint256"
        },
        {
          "indexed": false,
          "internalType": "uint256",
          "name": "endBlock",
          "type": "uint256"
        },
        {
          "indexed": false,
          "internalType": "string",
          "name": "description",
          "type": "string"
        }
      ],
      "name": "ProposalCreated",
      "type": "event"
    },
    {
      "anonymous": false,
      "inputs": [
        {
          "indexed": false,
          "internalType": "uint256",
          "name": "proposalId",
          "type": "uint256"
        }
      ],
      "name": "ProposalExecuted",
      "type": "event"
    },
    {
      "anonymous": false,
      "inputs": [
        {
          "indexed": false,
          "internalType": "uint256",
          "name": "proposalId",
          "type": "uint256"
        },
        {
          "indexed": false,
          "internalType": "uint256",
          "name": "eta",
          "type": "uint256"
        }
      ],
      "name": "ProposalQueued",
      "type": "event"
    },
    {
      "anonymous": false,
      "inputs": [
        {
          "indexed": false,
          "internalType": "uint256",
          "name": "oldProposalThreshold",
          "type": "uint256"
        },
        {
          "indexed": false,
          "internalType": "uint256",
          "name": "newProposalThreshold",
          "type": "uint256"
        }
      ],
      "name": "ProposalThresholdSet",
      "type": "event"
    },
    {
      "anonymous": false,
      "inputs": [
        {
          "indexed": false,
          "internalType": "uint256",
          "name": "oldQuorumNumerator",
          "type": "uint256"
        },
        {
          "indexed": false,
          "internalType": "uint256",
          "name": "newQuorumNumerator",
          "type": "uint256"
        }
      ],
      "name": "QuorumNumeratorUpdated",
      "type": "event"
    },
    {
      "anonymous": false,
      "inputs": [
        {
          "indexed": false,
          "internalType": "address",
          "name": "oldTimelock",
          "type": "address"
        },
        {
          "indexed": false,
          "internalType": "address",
          "name": "newTimelock",
          "type": "address"
        }
      ],
      "name": "TimelockChange",
      "type": "event"
    },
    {
      "anonymous": false,
      "inputs": [
        {
          "indexed": true,
          "internalType": "address",
          "name": "voter",
          "type": "address"
        },
        {
          "indexed": false,
          "internalType": "uint256",
          "name": "proposalId",
          "type": "uint256"
        },
        {
          "indexed": false,
          "internalType": "uint8",
          "name": "support",
          "type": "uint8"
        },
        {
          "indexed": false,
          "internalType": "uint256",
          "name": "weight",
          "type": "uint256"
        },
        {
          "indexed": false,
          "internalType": "string",
          "name": "reason",
          "type": "string"
        }
      ],
      "name": "VoteCast",
      "type": "event"
    },
    {
      "anonymous": false,
      "inputs": [
        {
          "indexed": true,
          "internalType": "address",
          "name": "voter",
          "type": "address"
        },
        {
          "indexed": false,
          "internalType": "uint256",
          "name": "proposalId",
          "type": "uint256"
        },
        {
          "indexed": false,
          "internalType": "uint8",
          "name": "support",
          "type": "uint8"
        },
        {
          "indexed": false,
          "internalType": "uint256",
          "name": "weight",
          "type": "uint256"
        },
        {
          "indexed": false,
          "internalType": "string",
          "name": "reason",
          "type": "string"
        },
        {
          "indexed": false,
          "internalType": "bytes",
          "name": "params",
          "type": "bytes"
        }
      ],
      "name": "VoteCastWithParams",
      "type": "event"
    },
    {
      "anonymous": false,
      "inputs": [
        {
          "indexed": false,
          "internalType": "uint256",
          "name": "oldVotingDelay",
          "type": "uint256"
        },
        {
          "indexed": false,
          "internalType": "uint256",
          "name": "newVotingDelay",
          "type": "uint256"
        }
      ],
      "name": "VotingDelaySet",
      "type": "event"
    },
    {
      "anonymous": false,
      "inputs": [
        {
          "indexed": false,
          "internalType": "uint256",
          "name": "oldVotingPeriod",
          "type": "uint256"
        },
        {
          "indexed": false,
          "internalType": "uint256",
          "name": "newVotingPeriod",
          "type": "uint256"
        }
      ],
      "name": "VotingPeriodSet",
      "type": "event"
    },
    {
      "inputs": [],
      "name": "BALLOT_TYPEHASH",
      "outputs": [
        {
          "internalType": "bytes32",
          "name": "",
          "type": "bytes32"
        }
      ],
      "stateMutability": "view",
      "type": "function"
    },
    {
      "inputs": [],
      "name": "COUNTING_MODE",
      "outputs": [
        {
          "internalType": "string",
          "name": "",
          "type": "string"
        }
      ],
      "stateMutability": "pure",
      "type": "function"
    },
    {
      "inputs": [],
      "name": "EXTENDED_BALLOT_TYPEHASH",
      "outputs": [
        {
          "internalType": "bytes32",
          "name": "",
          "type": "bytes32"
        }
      ],
      "stateMutability": "view",
      "type": "function"
    },
    {
      "inputs": [
        {
          "internalType": "uint256",
          "name": "proposalId",
          "type": "uint256"
        },
        {
          "internalType": "uint8",
          "name": "support",
          "type": "uint8"
        }
      ],
      "name": "castVote",
      "outputs": [
        {
          "internalType": "uint256",
          "name": "",
          "type": "uint256"
        }
      ],
      "stateMutability": "nonpayable",
      "type": "function"
    },
    {
      "inputs": [
        {
          "internalType": "uint256",
          "name": "proposalId",
          "type": "uint256"
        },
        {
          "internalType": "uint8",
          "name": "support",
          "type": "uint8"
        },
        {
          "internalType": "uint8",
          "name": "v",
          "type": "uint8"
        },
        {
          "internalType": "bytes32",
          "name": "r",
          "type": "bytes32"
        },
        {
          "internalType": "bytes32",
          "name": "s",
          "type": "bytes32"
        }
      ],
      "name": "castVoteBySig",
      "outputs": [
        {
          "internalType": "uint256",
          "name": "",
          "type": "uint256"
        }
      ],
      "stateMutability": "nonpayable",
      "type": "function"
    },
    {
      "inputs": [
        {
          "internalType": "uint256",
          "name": "proposalId",
          "type": "uint256"
        },
        {
          "internalType": "uint8",
          "name": "support",
          "type": "uint8"
        },
        {
          "internalType": "string",
          "name": "reason",
          "type": "string"
        }
      ],
      "name": "castVoteWithReason",
      "outputs": [
        {
          "internalType": "uint256",
          "name": "",
          "type": "uint256"
        }
      ],
      "stateMutability": "nonpayable",
      "type": "function"
    },
    {
      "inputs": [
        {
          "internalType": "uint256",
          "name": "proposalId",
          "type": "uint256"
        },
        {
          "internalType": "uint8",
          "name": "support",
          "type": "uint8"
        },
        {
          "internalType": "string",
          "name": "reason",
          "type": "string"
        },
        {
          "internalType": "bytes",
          "name": "params",
          "type": "bytes"
        }
      ],
      "name": "castVoteWithReasonAndParams",
      "outputs": [
        {
          "internalType": "uint256",
          "name": "",
          "type": "uint256"
        }
      ],
      "stateMutability": "nonpayable",
      "type": "function"
    },
    {
      "inputs": [
        {
          "internalType": "uint256",
          "name": "proposalId",
          "type": "uint256"
        },
        {
          "internalType": "uint8",
          "name": "support",
          "type": "uint8"
        },
        {
          "internalType": "string",
          "name": "reason",
          "type": "string"
        },
        {
          "internalType": "bytes",
          "name": "params",
          "type": "bytes"
        },
        {
          "internalType": "uint8",
          "name": "v",
          "type": "uint8"
        },
        {
          "internalType": "bytes32",
          "name": "r",
          "type": "bytes32"
        },
        {
          "internalType": "bytes32",
          "name": "s",
          "type": "bytes32"
        }
      ],
      "name": "castVoteWithReasonAndParamsBySig",
      "outputs": [
        {
          "internalType": "uint256",
          "name": "",
          "type": "uint256"
        }
      ],
      "stateMutability": "nonpayable",
      "type": "function"
    },
    {
      "inputs": [
        {
          "internalType": "address[]",
          "name": "targets",
          "type": "address[]"
        },
        {
          "internalType": "uint256[]",
          "name": "values",
          "type": "uint256[]"
        },
        {
          "internalType": "bytes[]",
          "name": "calldatas",
          "type": "bytes[]"
        },
        {
          "internalType": "bytes32",
          "name": "descriptionHash",
          "type": "bytes32"
        }
      ],
      "name": "execute",
      "outputs": [
        {
          "internalType": "uint256",
          "name": "",
          "type": "uint256"
        }
      ],
      "stateMutability": "payable",
      "type": "function"
    },
    {
      "inputs": [
        {
          "internalType": "address",
          "name": "account",
          "type": "address"
        },
        {
          "internalType": "uint256",
          "name": "blockNumber",
          "type": "uint256"
        }
      ],
      "name": "getVotes",
      "outputs": [
        {
          "internalType": "uint256",
          "name": "",
          "type": "uint256"
        }
      ],
      "stateMutability": "view",
      "type": "function"
    },
    {
      "inputs": [
        {
          "internalType": "address",
          "name": "account",
          "type": "address"
        },
        {
          "internalType": "uint256",
          "name": "blockNumber",
          "type": "uint256"
        },
        {
          "internalType": "bytes",
          "name": "params",
          "type": "bytes"
        }
      ],
      "name": "getVotesWithParams",
      "outputs": [
        {
          "internalType": "uint256",
          "name": "",
          "type": "uint256"
        }
      ],
      "stateMutability": "view",
      "type": "function"
    },
    {
      "inputs": [
        {
          "internalType": "uint256",
          "name": "proposalId",
          "type": "uint256"
        },
        {
          "internalType": "address",
          "name": "account",
          "type": "address"
        }
      ],
      "name": "hasVoted",
      "outputs": [
        {
          "internalType": "bool",
          "name": "",
          "type": "bool"
        }
      ],
      "stateMutability": "view",
      "type": "function"
    },
    {
      "inputs": [
        {
          "internalType": "address[]",
          "name": "targets",
          "type": "address[]"
        },
        {
          "internalType": "uint256[]",
          "name": "values",
          "type": "uint256[]"
        },
        {
          "internalType": "bytes[]",
          "name": "calldatas",
          "type": "bytes[]"
        },
        {
          "internalType": "bytes32",
          "name": "descriptionHash",
          "type": "bytes32"
        }
      ],
      "name": "hashProposal",
      "outputs": [
        {
          "internalType": "uint256",
          "name": "",
          "type": "uint256"
        }
      ],
      "stateMutability": "pure",
      "type": "function"
    },
    {
      "inputs": [],
      "name": "name",
      "outputs": [
        {
          "internalType": "string",
          "name": "",
          "type": "string"
        }
      ],
      "stateMutability": "view",
      "type": "function"
    },
    {
      "inputs": [
        {
          "internalType": "address",
          "name": "",
          "type": "address"
        },
        {
          "internalType": "address",
          "name": "",
          "type": "address"
        },
        {
          "internalType": "uint256[]",
          "name": "",
          "type": "uint256[]"
        },
        {
          "internalType": "uint256[]",
          "name": "",
          "type": "uint256[]"
        },
        {
          "internalType": "bytes",
          "name": "",
          "type": "bytes"
        }
      ],
      "name": "onERC1155BatchReceived",
      "outputs": [
        {
          "internalType": "bytes4",
          "name": "",
          "type": "bytes4"
        }
      ],
      "stateMutability": "nonpayable",
      "type": "function"
    },
    {
      "inputs": [
        {
          "internalType": "address",
          "name": "",
          "type": "address"
        },
        {
          "internalType": "address",
          "name": "",
          "type": "address"
        },
        {
          "internalType": "uint256",
          "name": "",
          "type": "uint256"
        },
        {
          "internalType": "uint256",
          "name": "",
          "type": "uint256"
        },
        {
          "internalType": "bytes",
          "name": "",
          "type": "bytes"
        }
      ],
      "name": "onERC1155Received",
      "outputs": [
        {
          "internalType": "bytes4",
          "name": "",
          "type": "bytes4"
        }
      ],
      "stateMutability": "nonpayable",
      "type": "function"
    },
    {
      "inputs": [
        {
          "internalType": "address",
          "name": "",
          "type": "address"
        },
        {
          "internalType": "address",
          "name": "",
          "type": "address"
        },
        {
          "internalType": "uint256",
          "name": "",
          "type": "uint256"
        },
        {
          "internalType": "bytes",
          "name": "",
          "type": "bytes"
        }
      ],
      "name": "onERC721Received",
      "outputs": [
        {
          "internalType": "bytes4",
          "name": "",
          "type": "bytes4"
        }
      ],
      "stateMutability": "nonpayable",
      "type": "function"
    },
    {
      "inputs": [
        {
          "internalType": "uint256",
          "name": "proposalId",
          "type": "uint256"
        }
      ],
      "name": "proposalDeadline",
      "outputs": [
        {
          "internalType": "uint256",
          "name": "",
          "type": "uint256"
        }
      ],
      "stateMutability": "view",
      "type": "function"
    },
    {
      "inputs": [
        {
          "internalType": "uint256",
          "name": "proposalId",
          "type": "uint256"
        }
      ],
      "name": "proposalEta",
      "outputs": [
        {
          "internalType": "uint256",
          "name": "",
          "type": "uint256"
        }
      ],
      "stateMutability": "view",
      "type": "function"
    },
    {
      "inputs": [
        {
          "internalType": "uint256",
          "name": "proposalId",
          "type": "uint256"
        }
      ],
      "name": "proposalSnapshot",
      "outputs": [
        {
          "internalType": "uint256",
          "name": "",
          "type": "uint256"
        }
      ],
      "stateMutability": "view",
      "type": "function"
    },
    {
      "inputs": [],
      "name": "proposalThreshold",
      "outputs": [
        {
          "internalType": "uint256",
          "name": "",
          "type": "uint256"
        }
      ],
      "stateMutability": "view",
      "type": "function"
    },
    {
      "inputs": [
        {
          "internalType": "uint256",
          "name": "proposalId",
          "type": "uint256"
        }
      ],
      "name": "proposalVotes",
      "outputs": [
        {
          "internalType": "uint256",
          "name": "againstVotes",
          "type": "uint256"
        },
        {
          "internalType": "uint256",
          "name": "forVotes",
          "type": "uint256"
        },
        {
          "internalType": "uint256",
          "name": "abstainVotes",
          "type": "uint256"
        }
      ],
      "stateMutability": "view",
      "type": "function"
    },
    {
      "inputs": [
        {
          "internalType": "address[]",
          "name": "targets",
          "type": "address[]"
        },
        {
          "internalType": "uint256[]",
          "name": "values",
          "type": "uint256[]"
        },
        {
          "internalType": "bytes[]",
          "name": "calldatas",
          "type": "bytes[]"
        },
        {
          "internalType": "string",
          "name": "description",
          "type": "string"
        }
      ],
      "name": "propose",
      "outputs": [
        {
          "internalType": "uint256",
          "name": "",
          "type": "uint256"
        }
      ],
      "stateMutability": "nonpayable",
      "type": "function"
    },
    {
      "inputs": [
        {
          "internalType": "address[]",
          "name": "targets",
          "type": "address[]"
        },
        {
          "internalType": "uint256[]",
          "name": "values",
          "type": "uint256[]"
        },
        {
          "internalType": "bytes[]",
          "name": "calldatas",
          "type": "bytes[]"
        },
        {
          "internalType": "bytes32",
          "name": "descriptionHash",
          "type": "bytes32"
        }
      ],
      "name": "queue",
      "outputs": [
        {
          "internalType": "uint256",
          "name": "",
          "type": "uint256"
        }
      ],
      "stateMutability": "nonpayable",
      "type": "function"
    },
    {
      "inputs": [
        {
          "internalType": "uint256",
          "name": "blockNumber",
          "type": "uint256"
        }
      ],
      "name": "quorum",
      "outputs": [
        {
          "internalType": "uint256",
          "name": "",
          "type": "uint256"
        }
      ],
      "stateMutability": "view",
      "type": "function"
    },
    {
      "inputs": [],
      "name": "quorumDenominator",
      "outputs": [
        {
          "internalType": "uint256",
          "name": "",
          "type": "uint256"
        }
      ],
      "stateMutability": "view",
      "type": "function"
    },
    {
      "inputs": [
        {
          "internalType": "uint256",
          "name": "blockNumber",
          "type": "uint256"
        }
      ],
      "name": "quorumNumerator",
      "outputs": [
        {
          "internalType": "uint256",
          "name": "",
          "type": "uint256"
        }
      ],
      "stateMutability": "view",
      "type": "function"
    },
    {
      "inputs": [],
      "name": "quorumNumerator",
      "outputs": [
        {
          "internalType": "uint256",
          "name": "",
          "type": "uint256"
        }
      ],
      "stateMutability": "view",
      "type": "function"
    },
    {
      "inputs": [
        {
          "internalType": "address",
          "name": "target",
          "type": "address"
        },
        {
          "internalType": "uint256",
          "name": "value",
          "type": "uint256"
        },
        {
          "internalType": "bytes",
          "name": "data",
          "type": "bytes"
        }
      ],
      "name": "relay",
      "outputs": [],
      "stateMutability": "nonpayable",
      "type": "function"
    },
    {
      "inputs": [
        {
          "internalType": "uint256",
          "name": "newProposalThreshold",
          "type": "uint256"
        }
      ],
      "name": "setProposalThreshold",
      "outputs": [],
      "stateMutability": "nonpayable",
      "type": "function"
    },
    {
      "inputs": [
        {
          "internalType": "uint256",
          "name": "newVotingDelay",
          "type": "uint256"
        }
      ],
      "name": "setVotingDelay",
      "outputs": [],
      "stateMutability": "nonpayable",
      "type": "function"
    },
    {
      "inputs": [
        {
          "internalType": "uint256",
          "name": "newVotingPeriod",
          "type": "uint256"
        }
      ],
      "name": "setVotingPeriod",
      "outputs": [],
      "stateMutability": "nonpayable",
      "type": "function"
    },
    {
      "inputs": [
        {
          "internalType": "uint256",
          "name": "proposalId",
          "type": "uint256"
        }
      ],
      "name": "state",
      "outputs": [
        {
          "internalType": "enum IGovernor.ProposalState",
          "name": "",
          "type": "uint8"
        }
      ],
      "stateMutability": "view",
      "type": "function"
    },
    {
      "inputs": [
        {
          "internalType": "bytes4",
          "name": "interfaceId",
          "type": "bytes4"
        }
      ],
      "name": "supportsInterface",
      "outputs": [
        {
          "internalType": "bool",
          "name": "",
          "type": "bool"
        }
      ],
      "stateMutability": "view",
      "type": "function"
    },
    {
      "inputs": [],
      "name": "timelock",
      "outputs": [
        {
          "internalType": "address",
          "name": "",
          "type": "address"
        }
      ],
      "stateMutability": "view",
      "type": "function"
    },
    {
      "inputs": [],
      "name": "token",
      "outputs": [
        {
          "internalType": "contract IVotes",
          "name": "",
          "type": "address"
        }
      ],
      "stateMutability": "view",
      "type": "function"
    },
    {
      "inputs": [
        {
          "internalType": "uint256",
          "name": "newQuorumNumerator",
          "type": "uint256"
        }
      ],
      "name": "updateQuorumNumerator",
      "outputs": [],
      "stateMutability": "nonpayable",
      "type": "function"
    },
    {
      "inputs": [
        {
          "internalType": "contract TimelockController",
          "name": "newTimelock",
          "type": "address"
        }
      ],
      "name": "updateTimelock",
      "outputs": [],
      "stateMutability": "nonpayable",
      "type": "function"
    },
    {
      "inputs": [],
      "name": "version",
      "outputs": [
        {
          "internalType": "string",
          "name": "",
          "type": "string"
        }
      ],
      "stateMutability": "view",
      "type": "function"
    },
    {
      "inputs": [],
      "name": "votingDelay",
      "outputs": [
        {
          "internalType": "uint256",
          "name": "",
          "type": "uint256"
        }
      ],
      "stateMutability": "view",
      "type": "function"
    },
    {
      "inputs": [],
      "name": "votingPeriod",
      "outputs": [
        {
          "internalType": "uint256",
          "name": "",
          "type": "uint256"
        }
      ],
      "stateMutability": "view",
      "type": "function"
    },
    {
      "stateMutability": "payable",
      "type": "receive"
    }
  ],
  "bytecode": "0x6101606040523480156200001257600080fd5b506040516200456438038062004564833981016040819052620000359162000809565b8481878686866040518060400160405280600881526020016723b7bb32b93737b960c11b815250806200006d6200016b60201b60201c565b815160208084019190912082518383012060e08290526101008190524660a0818152604080517f8b73c3c69bb8fe3d512ecc4cf759cc79239f7b179b0ffacaa9a75d522b39400f81880181905281830187905260608201869052608082019490945230818401528151808203909301835260c00190528051940193909320919290916080523060c052610120525050825162000113925060009150602084019062000754565b506200012190508362000186565b6200012c82620001c7565b62000137816200026e565b5050506001600160a01b0316610140526200015281620002af565b506200015e8162000427565b50505050505050620008e4565b6040805180820190915260018152603160f81b602082015290565b60045460408051918252602082018390527fc565b045403dc03c2eea82b81a0465edad9e2e7fc4d97e11421c209da93d7a93910160405180910390a1600455565b600081116200022d5760405162461bcd60e51b815260206004820152602760248201527f476f7665726e6f7253657474696e67733a20766f74696e6720706572696f6420604482015266746f6f206c6f7760c81b60648201526084015b60405180910390fd5b60055460408051918252602082018390527f7e3f7f0708a84de9203036abaa450dccc85ad5ff52f78c170f3edb55cf5e8828910160405180910390a1600555565b60065460408051918252602082018390527fccb45da8d5717e6c4544694297c4ba5cf151d455c9bb0ed4fc7a38411bc05461910160405180910390a1600655565b6064811115620003345760405162461bcd60e51b815260206004820152604360248201527f476f7665726e6f72566f74657351756f72756d4672616374696f6e3a2071756f60448201527f72756d4e756d657261746f72206f7665722071756f72756d44656e6f6d696e616064820152623a37b960e91b608482015260a40162000224565b60006200034062000490565b90508015801590620003525750600954155b15620003cd5760096000016040518060400160405280600063ffffffff1681526020016200038b84620004bf60201b620014491760201c565b6001600160e01b0390811690915282546001810184556000938452602093849020835194909301519091166401000000000263ffffffff909316929092179101555b620003e88260096200052e60201b620014b61790919060201c565b505060408051828152602081018490527f0553476bf02ef2726e8ce5ced78d63e26e602e4a2257b1f559418e24b4633997910160405180910390a15050565b600a54604080516001600160a01b03928316815291831660208301527f08f74ea46ef7894f65eabfb5e6e695de773a000b47c529ab559178069b226401910160405180910390a1600a80546001600160a01b0319166001600160a01b0392909216919091179055565b60095460009015620004b857620004b360096200068a60201b620015e11760201c565b905090565b5060085490565b60006001600160e01b038211156200052a5760405162461bcd60e51b815260206004820152602760248201527f53616665436173743a2076616c756520646f65736e27742066697420696e20326044820152663234206269747360c81b606482015260840162000224565b5090565b815460009081908162000541866200068a565b905060008211801562000585575043866200055e6001856200086c565b8154811062000571576200057162000892565b60009182526020909120015463ffffffff16145b15620005f957620005a185620004bf60201b620014491760201c565b86620005af6001856200086c565b81548110620005c257620005c262000892565b9060005260206000200160000160046101000a8154816001600160e01b0302191690836001600160e01b0316021790555062000681565b8560000160405180604001604052806200061e43620006ed60201b6200163d1760201c565b63ffffffff1681526020016200063f88620004bf60201b620014491760201c565b6001600160e01b0390811690915282546001810184556000938452602093849020835194909301519091166401000000000263ffffffff909316929092179101555b95939450505050565b80546000908015620006da5782620006a46001836200086c565b81548110620006b757620006b762000892565b60009182526020909120015464010000000090046001600160e01b0316620006dd565b60005b6001600160e01b03169392505050565b600063ffffffff8211156200052a5760405162461bcd60e51b815260206004820152602660248201527f53616665436173743a2076616c756520646f65736e27742066697420696e203360448201526532206269747360d01b606482015260840162000224565b8280546200076290620008a8565b90600052602060002090601f016020900481019282620007865760008555620007d1565b82601f10620007a157805160ff1916838001178555620007d1565b82800160010185558215620007d1579182015b82811115620007d1578251825591602001919060010190620007b4565b506200052a9291505b808211156200052a5760008155600101620007da565b6001600160a01b03811681146200080657600080fd5b50565b60008060008060008060c087890312156200082357600080fd5b86516200083081620007f0565b60208801519096506200084381620007f0565b6040880151606089015160808a015160a0909a0151989b929a5090989097909650945092505050565b6000828210156200088d57634e487b7160e01b600052601160045260246000fd5b500390565b634e487b7160e01b600052603260045260246000fd5b600181811c90821680620008bd57607f821691505b602082108103620008de57634e487b7160e01b600052602260045260246000fd5b50919050565b60805160a05160c05160e051610100516101205161014051613c176200094d60003960008181610876015281816120f4015261231601526000612492015260006124e1015260006124bc015260006124150152600061243f015260006124690152613c176000f3fe60806040526004361061024a5760003560e01c80637b3c71d311610139578063c28bc2fa116100b6578063ea0217cf1161007a578063ea0217cf146107b8578063eb9019d4146107d8578063ece40cc1146107f8578063f23a6e6114610818578063f8ce560a14610844578063fc0c546a1461086457600080fd5b8063c28bc2fa146106cc578063c59057e4146106ec578063d33219b41461070c578063dd4e2ba51461073e578063deaaa7cc1461078457600080fd5b8063a890c910116100fd578063a890c9101461062b578063ab58fb8e1461064b578063b58131b01461066b578063bc197c8114610680578063c01f9e37146106ac57600080fd5b80637b3c71d3146105a25780637d5e81e2146105c257806397c3d334146105e25780639a802a6d146105f6578063a7713a701461061657600080fd5b80633932abb1116101c757806354fd4d501161018b57806354fd4d50146104f857806356781388146105225780635f398a141461054257806360c4247f1461056257806370b0f6601461058257600080fd5b80633932abb1146103f75780633bccf4fd1461040c5780633e4f49e61461042c5780634385963214610459578063544ffc9c146104a357600080fd5b8063150b7a021161020e578063150b7a021461032c578063160cbed7146103705780632656227d146103905780632d63f693146103a35780632fe3e261146103c357600080fd5b806301ffc9a71461027257806302a251a3146102a757806303420181146102ca57806306f3f9e6146102ea57806306fdde031461030a57600080fd5b3661026d5730610258610898565b6001600160a01b03161461026b57600080fd5b005b600080fd5b34801561027e57600080fd5b5061029261028d366004612d24565b6108b1565b60405190151581526020015b60405180910390f35b3480156102b357600080fd5b506102bc6108c2565b60405190815260200161029e565b3480156102d657600080fd5b506102bc6102e5366004612e62565b6108cd565b3480156102f657600080fd5b5061026b610305366004612f08565b6109c5565b34801561031657600080fd5b5061031f610a58565b60405161029e9190612f7d565b34801561033857600080fd5b50610357610347366004612fa5565b630a85bd0160e11b949350505050565b6040516001600160e01b0319909116815260200161029e565b34801561037c57600080fd5b506102bc61038b366004613181565b610aea565b6102bc61039e366004613181565b610cea565b3480156103af57600080fd5b506102bc6103be366004612f08565b610dd7565b3480156103cf57600080fd5b506102bc7fb3b3f3b703cd84ce352197dcff232b1b5d3cfb2025ce47cf04742d0651f1af8881565b34801561040357600080fd5b506102bc610e0e565b34801561041857600080fd5b506102bc610427366004613210565b610e19565b34801561043857600080fd5b5061044c610447366004612f08565b610e8f565b60405161029e9190613274565b34801561046557600080fd5b5061029261047436600461329c565b60008281526007602090815260408083206001600160a01b038516845260030190915290205460ff1692915050565b3480156104af57600080fd5b506104dd6104be366004612f08565b6000908152600760205260409020805460018201546002909201549092565b6040805193845260208401929092529082015260600161029e565b34801561050457600080fd5b506040805180820190915260018152603160f81b602082015261031f565b34801561052e57600080fd5b506102bc61053d3660046132cc565b610e9a565b34801561054e57600080fd5b506102bc61055d3660046132f8565b610ec3565b34801561056e57600080fd5b506102bc61057d366004612f08565b610f0d565b34801561058e57600080fd5b5061026b61059d366004612f08565b610fa5565b3480156105ae57600080fd5b506102bc6105bd36600461337b565b61102c565b3480156105ce57600080fd5b506102bc6105dd3660046133d4565b61107e565b3480156105ee57600080fd5b5060646102bc565b34801561060257600080fd5b506102bc610611366004613488565b611095565b34801561062257600080fd5b506102bc6110ac565b34801561063757600080fd5b5061026b6106463660046134e0565b6110c8565b34801561065757600080fd5b506102bc610666366004612f08565b61114f565b34801561067757600080fd5b506102bc6111e9565b34801561068c57600080fd5b5061035761069b3660046134fd565b63bc197c8160e01b95945050505050565b3480156106b857600080fd5b506102bc6106c7366004612f08565b6111f4565b3480156106d857600080fd5b5061026b6106e7366004613590565b611223565b3480156106f857600080fd5b506102bc610707366004613181565b6112ea565b34801561071857600080fd5b50600a546001600160a01b03165b6040516001600160a01b03909116815260200161029e565b34801561074a57600080fd5b506040805180820190915260208082527f737570706f72743d627261766f2671756f72756d3d666f722c6162737461696e9082015261031f565b34801561079057600080fd5b506102bc7f150214d74d59b7d1e90c73fc22ef3d991dd0a76b046543d4d80ab92d2a50328f81565b3480156107c457600080fd5b5061026b6107d3366004612f08565b611324565b3480156107e457600080fd5b506102bc6107f33660046135d3565b6113ab565b34801561080457600080fd5b5061026b610813366004612f08565b6113b7565b34801561082457600080fd5b506103576108333660046135ff565b63f23a6e6160e01b95945050505050565b34801561085057600080fd5b506102bc61085f366004612f08565b61143e565b34801561087057600080fd5b506107267f000000000000000000000000000000000000000000000000000000000000000081565b60006108ac600a546001600160a01b031690565b905090565b60006108bc826116a2565b92915050565b60006108ac60055490565b6000806109716109697fb3b3f3b703cd84ce352197dcff232b1b5d3cfb2025ce47cf04742d0651f1af888c8c8c8c604051610909929190613667565b60405180910390208b8051906020012060405160200161094e959493929190948552602085019390935260ff9190911660408401526060830152608082015260a00190565b604051602081830303815290604052805190602001206116c7565b868686611715565b90506109b78a828b8b8b8080601f0160208091040260200160405190810160405280939291908181526020018383808284376000920191909152508d9250611733915050565b9a9950505050505050505050565b6109cd610898565b6001600160a01b0316336001600160a01b031614610a065760405162461bcd60e51b81526004016109fd90613677565b60405180910390fd5b30610a0f610898565b6001600160a01b031614610a4c5760008036604051610a2f929190613667565b604051809103902090505b80610a456002611898565b03610a3a57505b610a5581611917565b50565b606060008054610a67906136ae565b80601f0160208091040260200160405190810160405280929190818152602001828054610a93906136ae565b8015610ae05780601f10610ab557610100808354040283529160200191610ae0565b820191906000526020600020905b815481529060010190602001808311610ac357829003601f168201915b5050505050905090565b600080610af9868686866112ea565b90506004610b0682610e8f565b6007811115610b1757610b1761325e565b14610b345760405162461bcd60e51b81526004016109fd906136e8565b600a546040805163793d064960e11b815290516000926001600160a01b03169163f27a0c929160048083019260209291908290030181865afa158015610b7e573d6000803e3d6000fd5b505050506040513d601f19601f82011682018060405250810190610ba29190613729565b600a5460405163b1c5f42760e01b81529192506001600160a01b03169063b1c5f42790610bdc908a908a908a906000908b9060040161380b565b602060405180830381865afa158015610bf9573d6000803e3d6000fd5b505050506040513d601f19601f82011682018060405250810190610c1d9190613729565b6000838152600b602052604080822092909255600a5491516308f2a0bb60e41b81526001600160a01b0390921691638f2a0bb091610c68918b918b918b91908b908990600401613859565b600060405180830381600087803b158015610c8257600080fd5b505af1158015610c96573d6000803e3d6000fd5b505050507f9a2e42fd6722813d69113e7d0079d3d940171428df7373df9c7f7617cfda2892828242610cc891906138c7565b6040805192835260208301919091520160405180910390a15095945050505050565b600080610cf9868686866112ea565b90506000610d0682610e8f565b90506004816007811115610d1c57610d1c61325e565b1480610d3957506005816007811115610d3757610d3761325e565b145b610d555760405162461bcd60e51b81526004016109fd906136e8565b600082815260016020818152604092839020600201805460ff191690921790915590518381527f712ae1383f79ac853f8d882153778e0260ef8f03b504e2866e0593e04d2b291f910160405180910390a1610db38288888888611a64565b610dc08288888888611b05565b610dcd8288888888611b12565b5095945050505050565b60008181526001602090815260408083208151928301909152546001600160401b0316908190525b6001600160401b031692915050565b60006108ac60045490565b604080517f150214d74d59b7d1e90c73fc22ef3d991dd0a76b046543d4d80ab92d2a50328f602082015290810186905260ff851660608201526000908190610e67906109699060800161094e565b9050610e8487828860405180602001604052806000815250611b4b565b979650505050505050565b60006108bc82611b6e565b600080339050610ebb84828560405180602001604052806000815250611b4b565b949350505050565b600080339050610e8487828888888080601f0160208091040260200160405190810160405280939291908181526020018383808284376000920191909152508a9250611733915050565b600954600090808203610f24575050600854919050565b60006009610f336001846138df565b81548110610f4357610f436138f6565b60009182526020918290206040805180820190915291015463ffffffff81168083526401000000009091046001600160e01b03169282019290925291508410610f9a57602001516001600160e01b03169392505050565b610ebb600985611cb8565b610fad610898565b6001600160a01b0316336001600160a01b031614610fdd5760405162461bcd60e51b81526004016109fd90613677565b30610fe6610898565b6001600160a01b0316146110235760008036604051611006929190613667565b604051809103902090505b8061101c6002611898565b0361101157505b610a5581611dc7565b60008033905061107486828787878080601f016020809104026020016040519081016040528093929190818152602001838380828437600092019190915250611b4b92505050565b9695505050505050565b600061108c85858585611e08565b95945050505050565b60006110a28484846120cb565b90505b9392505050565b600954600090156110c1576108ac60096115e1565b5060085490565b6110d0610898565b6001600160a01b0316336001600160a01b0316146111005760405162461bcd60e51b81526004016109fd90613677565b30611109610898565b6001600160a01b0316146111465760008036604051611129929190613667565b604051809103902090505b8061113f6002611898565b0361113457505b610a5581612161565b600a546000828152600b602052604080822054905163d45c443560e01b81526004810191909152909182916001600160a01b039091169063d45c443590602401602060405180830381865afa1580156111ac573d6000803e3d6000fd5b505050506040513d601f19601f820116820180604052508101906111d09190613729565b9050806001146111e057806110a5565b60009392505050565b60006108ac60065490565b60008181526001602081815260408084208151928301909152909101546001600160401b031690819052610dff565b61122b610898565b6001600160a01b0316336001600160a01b03161461125b5760405162461bcd60e51b81526004016109fd90613677565b30611264610898565b6001600160a01b0316146112a15760008036604051611284929190613667565b604051809103902090505b8061129a6002611898565b0361128f57505b6112e38483838080601f0160208091040260200160405190810160405280939291908181526020018383808284376000920191909152508892506121ca915050565b5050505050565b600084848484604051602001611303949392919061390c565b60408051601f19818403018152919052805160209091012095945050505050565b61132c610898565b6001600160a01b0316336001600160a01b03161461135c5760405162461bcd60e51b81526004016109fd90613677565b30611365610898565b6001600160a01b0316146113a25760008036604051611385929190613667565b604051809103902090505b8061139b6002611898565b0361139057505b610a55816121f0565b60006110a58383612291565b6113bf610898565b6001600160a01b0316336001600160a01b0316146113ef5760405162461bcd60e51b81526004016109fd90613677565b306113f8610898565b6001600160a01b0316146114355760008036604051611418929190613667565b604051809103902090505b8061142e6002611898565b0361142357505b610a55816122b2565b60006108bc826122f3565b60006001600160e01b038211156114b25760405162461bcd60e51b815260206004820152602760248201527f53616665436173743a2076616c756520646f65736e27742066697420696e20326044820152663234206269747360c81b60648201526084016109fd565b5090565b81546000908190816114c7866115e1565b9050600082118015611505575043866114e16001856138df565b815481106114f1576114f16138f6565b60009182526020909120015463ffffffff16145b156115655761151385611449565b8661151f6001856138df565b8154811061152f5761152f6138f6565b9060005260206000200160000160046101000a8154816001600160e01b0302191690836001600160e01b031602179055506115d3565b85600001604051806040016040528061157d4361163d565b63ffffffff16815260200161159188611449565b6001600160e01b0390811690915282546001810184556000938452602093849020835194909301519091166401000000000263ffffffff909316929092179101555b9250839150505b9250929050565b8054600090801561162a57826115f86001836138df565b81548110611608576116086138f6565b60009182526020909120015464010000000090046001600160e01b031661162d565b60005b6001600160e01b03169392505050565b600063ffffffff8211156114b25760405162461bcd60e51b815260206004820152602660248201527f53616665436173743a2076616c756520646f65736e27742066697420696e203360448201526532206269747360d01b60648201526084016109fd565b60006001600160e01b03198216636e665ced60e01b14806108bc57506108bc8261239d565b60006108bc6116d4612408565b8360405161190160f01b6020820152602281018390526042810182905260009060620160405160208183030381529060405280519060200120905092915050565b60008060006117268787878761252f565b91509150610dcd8161261c565b600085815260016020819052604082209061174d88610e8f565b600781111561175e5761175e61325e565b146117b75760405162461bcd60e51b815260206004820152602360248201527f476f7665726e6f723a20766f7465206e6f742063757272656e746c792061637460448201526269766560e81b60648201526084016109fd565b604080516020810190915281546001600160401b0316908190526000906117e0908890866120cb565b90506117ef88888884886127d2565b835160000361184457866001600160a01b03167fb8e138887d0aa13bab447e82de9d5c1777041ecd21ca36ba824ff1e6c07ddda4898884896040516118379493929190613957565b60405180910390a2610e84565b866001600160a01b03167fe2babfbac5889a709b63bb7f598b324e08bc5a4fb9ec647fb3cbc9ec07eb8712898884898960405161188595949392919061397f565b60405180910390a2979650505050505050565b60006118b38254600f81810b600160801b909204900b131590565b156118d157604051631ed9509560e11b815260040160405180910390fd5b508054600f0b6000818152600180840160205260408220805492905583546fffffffffffffffffffffffffffffffff191692016001600160801b03169190911790915590565b606481111561199a5760405162461bcd60e51b815260206004820152604360248201527f476f7665726e6f72566f74657351756f72756d4672616374696f6e3a2071756f60448201527f72756d4e756d657261746f72206f7665722071756f72756d44656e6f6d696e616064820152623a37b960e91b608482015260a4016109fd565b60006119a46110ac565b905080158015906119b55750600954155b15611a1a576040805180820190915260008152600990602081016119d884611449565b6001600160e01b0390811690915282546001810184556000938452602093849020835194909301519091166401000000000263ffffffff909316929092179101555b611a256009836114b6565b505060408051828152602081018490527f0553476bf02ef2726e8ce5ced78d63e26e602e4a2257b1f559418e24b4633997910160405180910390a15050565b30611a6d610898565b6001600160a01b0316146112e35760005b8451811015611afd57306001600160a01b0316858281518110611aa357611aa36138f6565b60200260200101516001600160a01b031603611aed57611aed838281518110611ace57611ace6138f6565b602002602001015180519060200120600261294c90919063ffffffff16565b611af6816139c5565b9050611a7e565b505050505050565b6112e38585858585612988565b30611b1b610898565b6001600160a01b0316146112e357600254600f81810b600160801b909204900b13156112e35760006002556112e3565b600061108c85858585611b6960408051602081019091526000815290565b611733565b600080611b7a836129fc565b90506004816007811115611b9057611b9061325e565b14611b9b5792915050565b6000838152600b602052604090205480611bb6575092915050565b600a54604051632ab0f52960e01b8152600481018390526001600160a01b0390911690632ab0f52990602401602060405180830381865afa158015611bff573d6000803e3d6000fd5b505050506040513d601f19601f82011682018060405250810190611c2391906139de565b15611c32575060079392505050565b600a54604051632c258a9f60e11b8152600481018390526001600160a01b039091169063584b153e90602401602060405180830381865afa158015611c7b573d6000803e3d6000fd5b505050506040513d601f19601f82011682018060405250810190611c9f91906139de565b15611cae575060059392505050565b5060029392505050565b6000438210611d095760405162461bcd60e51b815260206004820181905260248201527f436865636b706f696e74733a20626c6f636b206e6f7420796574206d696e656460448201526064016109fd565b825460005b81811015611d6e576000611d228284612b0b565b905084866000018281548110611d3a57611d3a6138f6565b60009182526020909120015463ffffffff161115611d5a57809250611d68565b611d658160016138c7565b91505b50611d0e565b8115611db25784611d806001846138df565b81548110611d9057611d906138f6565b60009182526020909120015464010000000090046001600160e01b0316611db5565b60005b6001600160e01b031695945050505050565b60045460408051918252602082018390527fc565b045403dc03c2eea82b81a0465edad9e2e7fc4d97e11421c209da93d7a93910160405180910390a1600455565b6000611e126111e9565b611e21336107f36001436138df565b1015611e895760405162461bcd60e51b815260206004820152603160248201527f476f7665726e6f723a2070726f706f73657220766f7465732062656c6f7720706044820152701c9bdc1bdcd85b081d1a1c995cda1bdb19607a1b60648201526084016109fd565b6000611e9e86868686805190602001206112ea565b90508451865114611ec15760405162461bcd60e51b81526004016109fd90613a00565b8351865114611ee25760405162461bcd60e51b81526004016109fd90613a00565b6000865111611f335760405162461bcd60e51b815260206004820152601860248201527f476f7665726e6f723a20656d7074792070726f706f73616c000000000000000060448201526064016109fd565b600081815260016020908152604091829020825191820190925281546001600160401b03169081905215611fb35760405162461bcd60e51b815260206004820152602160248201527f476f7665726e6f723a2070726f706f73616c20616c72656164792065786973746044820152607360f81b60648201526084016109fd565b6000611fc5611fc0610e0e565b612b26565b611fce43612b26565b611fd89190613a41565b90506000611fe7611fc06108c2565b611ff19083613a41565b835467ffffffffffffffff19166001600160401b038416178455905060018301805467ffffffffffffffff19166001600160401b0383161790557f7d84a6263ae0d98d3329bd7b46bb4e8d6f98cd35a7adb45c274c8b7fd5ebd5e084338b8b8d516001600160401b0381111561206957612069612da5565b60405190808252806020026020018201604052801561209c57816020015b60608152602001906001900390816120875790505b508c88888e6040516120b699989796959493929190613a6c565b60405180910390a15091979650505050505050565b604051630748d63560e31b81526001600160a01b038481166004830152602482018490526000917f000000000000000000000000000000000000000000000000000000000000000090911690633a46b1a890604401602060405180830381865afa15801561213d573d6000803e3d6000fd5b505050506040513d601f19601f820116820180604052508101906110a29190613729565b600a54604080516001600160a01b03928316815291831660208301527f08f74ea46ef7894f65eabfb5e6e695de773a000b47c529ab559178069b226401910160405180910390a1600a80546001600160a01b0319166001600160a01b0392909216919091179055565b60606110a2848484604051806060016040528060298152602001613bb960299139612b8e565b600081116122505760405162461bcd60e51b815260206004820152602760248201527f476f7665726e6f7253657474696e67733a20766f74696e6720706572696f6420604482015266746f6f206c6f7760c81b60648201526084016109fd565b60055460408051918252602082018390527f7e3f7f0708a84de9203036abaa450dccc85ad5ff52f78c170f3edb55cf5e8828910160405180910390a1600555565b60006110a583836122ad60408051602081019091526000815290565b6120cb565b60065460408051918252602082018390527fccb45da8d5717e6c4544694297c4ba5cf151d455c9bb0ed4fc7a38411bc05461910160405180910390a1600655565b6000606461230083610f0d565b604051632394e7a360e21b8152600481018590527f00000000000000000000000000000000000000000000000000000000000000006001600160a01b031690638e539e8c90602401602060405180830381865afa158015612365573d6000803e3d6000fd5b505050506040513d601f19601f820116820180604052508101906123899190613729565b6123939190613b5b565b6108bc9190613b7a565b60006001600160e01b0319821663bf26d89760e01b14806123ce57506001600160e01b031982166379dd796f60e01b145b806123e957506001600160e01b03198216630271189760e51b145b806108bc57506301ffc9a760e01b6001600160e01b03198316146108bc565b6000306001600160a01b037f00000000000000000000000000000000000000000000000000000000000000001614801561246157507f000000000000000000000000000000000000000000000000000000000000000046145b1561248b57507f000000000000000000000000000000000000000000000000000000000000000090565b50604080517f00000000000000000000000000000000000000000000000000000000000000006020808301919091527f0000000000000000000000000000000000000000000000000000000000000000828401527f000000000000000000000000000000000000000000000000000000000000000060608301524660808301523060a0808401919091528351808403909101815260c0909201909252805191012090565b6000807f7fffffffffffffffffffffffffffffff5d576e7357a4501ddfe92f46681b20a08311156125665750600090506003612613565b8460ff16601b1415801561257e57508460ff16601c14155b1561258f5750600090506004612613565b6040805160008082526020820180845289905260ff881692820192909252606081018690526080810185905260019060a0016020604051602081039080840390855afa1580156125e3573d6000803e3d6000fd5b5050604051601f1901519150506001600160a01b03811661260c57600060019250925050612613565b9150600090505b94509492505050565b60008160048111156126305761263061325e565b036126385750565b600181600481111561264c5761264c61325e565b036126995760405162461bcd60e51b815260206004820152601860248201527f45434453413a20696e76616c6964207369676e6174757265000000000000000060448201526064016109fd565b60028160048111156126ad576126ad61325e565b036126fa5760405162461bcd60e51b815260206004820152601f60248201527f45434453413a20696e76616c6964207369676e6174757265206c656e6774680060448201526064016109fd565b600381600481111561270e5761270e61325e565b036127665760405162461bcd60e51b815260206004820152602260248201527f45434453413a20696e76616c6964207369676e6174757265202773272076616c604482015261756560f01b60648201526084016109fd565b600481600481111561277a5761277a61325e565b03610a555760405162461bcd60e51b815260206004820152602260248201527f45434453413a20696e76616c6964207369676e6174757265202776272076616c604482015261756560f01b60648201526084016109fd565b60008581526007602090815260408083206001600160a01b0388168452600381019092529091205460ff161561285a5760405162461bcd60e51b815260206004820152602760248201527f476f7665726e6f72566f74696e6753696d706c653a20766f746520616c726561604482015266191e4818d85cdd60ca1b60648201526084016109fd565b6001600160a01b03851660009081526003820160205260409020805460ff1916600117905560ff84166128a6578281600001600082825461289b91906138c7565b90915550611afd9050565b60001960ff8516016128c6578281600101600082825461289b91906138c7565b60011960ff8516016128e6578281600201600082825461289b91906138c7565b60405162461bcd60e51b815260206004820152603560248201527f476f7665726e6f72566f74696e6753696d706c653a20696e76616c69642076616044820152746c756520666f7220656e756d20566f74655479706560581b60648201526084016109fd565b8154600160801b90819004600f0b6000818152600180860160205260409091209390935583546001600160801b03908116939091011602179055565b600a5460405163e38335e560e01b81526001600160a01b039091169063e38335e59034906129c390889088908890600090899060040161380b565b6000604051808303818588803b1580156129dc57600080fd5b505af11580156129f0573d6000803e3d6000fd5b50505050505050505050565b6000818152600160205260408120600281015460ff1615612a205750600792915050565b6002810154610100900460ff1615612a3b5750600292915050565b6000612a4684610dd7565b905080600003612a985760405162461bcd60e51b815260206004820152601d60248201527f476f7665726e6f723a20756e6b6e6f776e2070726f706f73616c20696400000060448201526064016109fd565b438110612aa9575060009392505050565b6000612ab4856111f4565b9050438110612ac857506001949350505050565b612ad185612cb4565b8015612af0575060008581526007602052604090208054600190910154115b15612b0057506004949350505050565b506003949350505050565b6000612b1a6002848418613b7a565b6110a5908484166138c7565b60006001600160401b038211156114b25760405162461bcd60e51b815260206004820152602660248201527f53616665436173743a2076616c756520646f65736e27742066697420696e203660448201526534206269747360d01b60648201526084016109fd565b606082471015612bef5760405162461bcd60e51b815260206004820152602660248201527f416464726573733a20696e73756666696369656e742062616c616e636520666f6044820152651c8818d85b1b60d21b60648201526084016109fd565b6001600160a01b0385163b612c465760405162461bcd60e51b815260206004820152601d60248201527f416464726573733a2063616c6c20746f206e6f6e2d636f6e747261637400000060448201526064016109fd565b600080866001600160a01b03168587604051612c629190613b9c565b60006040518083038185875af1925050503d8060008114612c9f576040519150601f19603f3d011682016040523d82523d6000602084013e612ca4565b606091505b5091509150610e84828286612ceb565b600081815260076020526040812060028101546001820154612cd691906138c7565b612ce261085f85610dd7565b11159392505050565b60608315612cfa5750816110a5565b825115612d0a5782518084602001fd5b8160405162461bcd60e51b81526004016109fd9190612f7d565b600060208284031215612d3657600080fd5b81356001600160e01b0319811681146110a557600080fd5b803560ff81168114612d5f57600080fd5b919050565b60008083601f840112612d7657600080fd5b5081356001600160401b03811115612d8d57600080fd5b6020830191508360208285010111156115da57600080fd5b634e487b7160e01b600052604160045260246000fd5b604051601f8201601f191681016001600160401b0381118282101715612de357612de3612da5565b604052919050565b60006001600160401b03831115612e0457612e04612da5565b612e17601f8401601f1916602001612dbb565b9050828152838383011115612e2b57600080fd5b828260208301376000602084830101529392505050565b600082601f830112612e5357600080fd5b6110a583833560208501612deb565b60008060008060008060008060e0898b031215612e7e57600080fd5b88359750612e8e60208a01612d4e565b965060408901356001600160401b0380821115612eaa57600080fd5b612eb68c838d01612d64565b909850965060608b0135915080821115612ecf57600080fd5b50612edc8b828c01612e42565b945050612eeb60808a01612d4e565b925060a0890135915060c089013590509295985092959890939650565b600060208284031215612f1a57600080fd5b5035919050565b60005b83811015612f3c578181015183820152602001612f24565b83811115612f4b576000848401525b50505050565b60008151808452612f69816020860160208601612f21565b601f01601f19169290920160200192915050565b6020815260006110a56020830184612f51565b6001600160a01b0381168114610a5557600080fd5b60008060008060808587031215612fbb57600080fd5b8435612fc681612f90565b93506020850135612fd681612f90565b92506040850135915060608501356001600160401b03811115612ff857600080fd5b61300487828801612e42565b91505092959194509250565b60006001600160401b0382111561302957613029612da5565b5060051b60200190565b600082601f83011261304457600080fd5b8135602061305961305483613010565b612dbb565b82815260059290921b8401810191818101908684111561307857600080fd5b8286015b8481101561309c57803561308f81612f90565b835291830191830161307c565b509695505050505050565b600082601f8301126130b857600080fd5b813560206130c861305483613010565b82815260059290921b840181019181810190868411156130e757600080fd5b8286015b8481101561309c57803583529183019183016130eb565b600082601f83011261311357600080fd5b8135602061312361305483613010565b82815260059290921b8401810191818101908684111561314257600080fd5b8286015b8481101561309c5780356001600160401b038111156131655760008081fd5b6131738986838b0101612e42565b845250918301918301613146565b6000806000806080858703121561319757600080fd5b84356001600160401b03808211156131ae57600080fd5b6131ba88838901613033565b955060208701359150808211156131d057600080fd5b6131dc888389016130a7565b945060408701359150808211156131f257600080fd5b506131ff87828801613102565b949793965093946060013593505050565b600080600080600060a0868803121561322857600080fd5b8535945061323860208701612d4e565b935061324660408701612d4e565b94979396509394606081013594506080013592915050565b634e487b7160e01b600052602160045260246000fd5b602081016008831061329657634e487b7160e01b600052602160045260246000fd5b91905290565b600080604083850312156132af57600080fd5b8235915060208301356132c181612f90565b809150509250929050565b600080604083850312156132df57600080fd5b823591506132ef60208401612d4e565b90509250929050565b60008060008060006080868803121561331057600080fd5b8535945061332060208701612d4e565b935060408601356001600160401b038082111561333c57600080fd5b61334889838a01612d64565b9095509350606088013591508082111561336157600080fd5b5061336e88828901612e42565b9150509295509295909350565b6000806000806060858703121561339157600080fd5b843593506133a160208601612d4e565b925060408501356001600160401b038111156133bc57600080fd5b6133c887828801612d64565b95989497509550505050565b600080600080608085870312156133ea57600080fd5b84356001600160401b038082111561340157600080fd5b61340d88838901613033565b9550602087013591508082111561342357600080fd5b61342f888389016130a7565b9450604087013591508082111561344557600080fd5b61345188838901613102565b9350606087013591508082111561346757600080fd5b508501601f8101871361347957600080fd5b61300487823560208401612deb565b60008060006060848603121561349d57600080fd5b83356134a881612f90565b92506020840135915060408401356001600160401b038111156134ca57600080fd5b6134d686828701612e42565b9150509250925092565b6000602082840312156134f257600080fd5b81356110a581612f90565b600080600080600060a0868803121561351557600080fd5b853561352081612f90565b9450602086013561353081612f90565b935060408601356001600160401b038082111561354c57600080fd5b61355889838a016130a7565b9450606088013591508082111561356e57600080fd5b61357a89838a016130a7565b9350608088013591508082111561336157600080fd5b600080600080606085870312156135a657600080fd5b84356135b181612f90565b93506020850135925060408501356001600160401b038111156133bc57600080fd5b600080604083850312156135e657600080fd5b82356135f181612f90565b946020939093013593505050565b600080600080600060a0868803121561361757600080fd5b853561362281612f90565b9450602086013561363281612f90565b9350604086013592506060860135915060808601356001600160401b0381111561365b57600080fd5b61336e88828901612e42565b8183823760009101908152919050565b60208082526018908201527f476f7665726e6f723a206f6e6c79476f7665726e616e63650000000000000000604082015260600190565b600181811c908216806136c257607f821691505b6020821081036136e257634e487b7160e01b600052602260045260246000fd5b50919050565b60208082526021908201527f476f7665726e6f723a2070726f706f73616c206e6f74207375636365737366756040820152601b60fa1b606082015260800190565b60006020828403121561373b57600080fd5b5051919050565b600081518084526020808501945080840160005b8381101561377b5781516001600160a01b031687529582019590820190600101613756565b509495945050505050565b600081518084526020808501945080840160005b8381101561377b5781518752958201959082019060010161379a565b600081518084526020808501808196508360051b8101915082860160005b858110156137fe5782840389526137ec848351612f51565b988501989350908401906001016137d4565b5091979650505050505050565b60a08152600061381e60a0830188613742565b82810360208401526138308188613786565b9050828103604084015261384481876137b6565b60608401959095525050608001529392505050565b60c08152600061386c60c0830189613742565b828103602084015261387e8189613786565b9050828103604084015261389281886137b6565b60608401969096525050608081019290925260a0909101529392505050565b634e487b7160e01b600052601160045260246000fd5b600082198211156138da576138da6138b1565b500190565b6000828210156138f1576138f16138b1565b500390565b634e487b7160e01b600052603260045260246000fd5b60808152600061391f6080830187613742565b82810360208401526139318187613786565b9050828103604084015261394581866137b6565b91505082606083015295945050505050565b84815260ff841660208201528260408201526080606082015260006110746080830184612f51565b85815260ff8516602082015283604082015260a0606082015260006139a760a0830185612f51565b82810360808401526139b98185612f51565b98975050505050505050565b6000600182016139d7576139d76138b1565b5060010190565b6000602082840312156139f057600080fd5b815180151581146110a557600080fd5b60208082526021908201527f476f7665726e6f723a20696e76616c69642070726f706f73616c206c656e67746040820152600d60fb1b606082015260800190565b60006001600160401b03808316818516808303821115613a6357613a636138b1565b01949350505050565b60006101208b8352602060018060a01b038c1681850152816040850152613a958285018c613742565b91508382036060850152613aa9828b613786565b915083820360808501528189518084528284019150828160051b850101838c0160005b83811015613afa57601f19878403018552613ae8838351612f51565b94860194925090850190600101613acc565b505086810360a0880152613b0e818c6137b6565b945050505050613b2960c08401876001600160401b03169052565b6001600160401b03851660e0840152828103610100840152613b4b8185612f51565b9c9b505050505050505050505050565b6000816000190483118215151615613b7557613b756138b1565b500290565b600082613b9757634e487b7160e01b600052601260045260246000fd5b500490565b60008251613bae818460208701612f21565b919091019291505056fe416464726573733a206c6f772d6c6576656c2063616c6c20776974682076616c7565206661696c6564a26469706673582212200156d8705583157e80086d48b6070762c1b5a8f45a1efdc207beae5248e20c0364736f6c634300080d0033",
  "linkReferences": {},
  "deployedLinkReferences": {}
}