{
  "_format": "hh-sol-artifact-1",
  "contractName": "GovernanceToken",
  "sourceName": "contracts/governance/GovernanceToken.sol",
  "abi": [
    {
      "inputs": [
        {
          "internalType": "string",
          "name": "name",
          "type": "string"
        },
        {
          "internalType": "string",
          "name": "symbol",
          "type": "string"
        },
        {
          "internalType": "uint256",
          "name": "initialSupply",
          "type": "uint256"
        }
      ],
      "stateMutability": "nonpayable",
      "type": "constructor"
    },
    {
      "anonymous": false,
      "inputs": [
        {
          "indexed": true,
          "internalType": "address",
          "name": "owner",
          "type": "address"
        },
        {
          "indexed": true,
          "internalType": "address",
          "name": "spender",
          "type": "address"
        },
        {
          "indexed": false,
          "internalType": "uint256",
          "name": "value",
          "type": "uint256"
        }
      ],
      "name": "Approval",
      "type": "event"
    },
    {
      "anonymous": false,
      "inputs": [
        {
          "indexed": true,
          "internalType": "address",
          "name": "delegator",
          "type": "address"
        },
        {
          "indexed": true,
          "internalType": "address",
          "name": "fromDelegate",
          "type": "address"
        },
        {
          "indexed": true,
          "internalType": "address",
          "name": "toDelegate",
          "type": "address"
        }
      ],
      "name": "DelegateChanged",
      "type": "event"
    },
    {
      "anonymous": false,
      "inputs": [
        {
          "indexed": true,
          "internalType": "address",
          "name": "delegate",
          "type": "address"
        },
        {
          "indexed": false,
          "internalType": "uint256",
          "name": "previousBalance",
          "type": "uint256"
        },
        {
          "indexed": false,
          "internalType": "uint256",
          "name": "newBalance",
          "type": "uint256"
        }
      ],
      "name": "DelegateVotesChanged",
      "type": "event"
    },
    {
      "anonymous": false,
      "inputs": [
        {
          "indexed": true,
          "internalType": "address",
          "name": "from",
          "type": "address"
        },
        {
          "indexed": true,
          "internalType": "address",
          "name": "to",
          "type": "address"
        },
        {
          "indexed": false,
          "internalType": "uint256",
          "name": "value",
          "type": "uint256"
        }
      ],
      "name": "Transfer",
      "type": "event"
    },
    {
      "inputs": [],
      "name": "DOMAIN_SEPARATOR",
      "outputs": [
        {
          "internalType": "bytes32",
          "name": "",
          "type": "bytes32"
        }
      ],
      "stateMutability": "view",
      "type": "function"
    },
    {
      "inputs": [
        {
          "internalType": "address",
          "name": "owner",
          "type": "address"
        },
        {
          "internalType": "address",
          "name": "spender",
          "type": "address"
        }
      ],
      "name": "allowance",
      "outputs": [
        {
          "internalType": "uint256",
          "name": "",
          "type": "uint256"
        }
      ],
      "stateMutability": "view",
      "type": "function"
    },
    {
      "inputs": [
        {
          "internalType": "address",
          "name": "spender",
          "type": "address"
        },
        {
          "internalType": "uint256",
          "name": "amount",
          "type": "uint256"
        }
      ],
      "name": "approve",
      "outputs": [
        {
          "internalType": "bool",
          "name": "",
          "type": "bool"
        }
      ],
      "stateMutability": "nonpayable",
      "type": "function"
    },
    {
      "inputs": [
        {
          "internalType": "address",
          "name": "account",
          "type": "address"
        }
      ],
      "name": "balanceOf",
      "outputs": [
        {
          "internalType": "uint256",
          "name": "",
          "type": "uint256"
        }
      ],
      "stateMutability": "view",
      "type": "function"
    },
    {
      "inputs": [
        {
          "internalType": "address",
          "name": "account",
          "type": "address"
        },
        {
          "internalType": "uint32",
          "name": "pos",
          "type": "uint32"
        }
      ],
      "name": "checkpoints",
      "outputs": [
        {
          "components": [
            {
              "internalType": "uint32",
              "name": "fromBlock",
              "type": "uint32"
            },
            {
              "internalType": "uint224",
              "name": "votes",
              "type": "uint224"
            }
          ],
          "internalType": "struct ERC20Votes.Checkpoint",
          "name": "",
          "type": "tuple"
        }
      ],
      "stateMutability": "view",
      "type": "function"
    },
    {
      "inputs": [],
      "name": "decimals",
      "outputs": [
        {
          "internalType": "uint8",
          "name": "",
          "type": "uint8"
        }
      ],
      "stateMutability": "view",
      "type": "function"
    },
    {
      "inputs": [
        {
          "internalType": "address",
          "name": "spender",
          "type": "address"
        },
        {
          "internalType": "uint256",
          "name": "subtractedValue",
          "type": "uint256"
        }
      ],
      "name": "decreaseAllowance",
      "outputs": [
        {
          "internalType": "bool",
          "name": "",
          "type": "bool"
        }
      ],
      "stateMutability": "nonpayable",
      "type": "function"
    },
    {
      "inputs": [
        {
          "internalType": "address",
          "name": "delegatee",
          "type": "address"
        }
      ],
      "name": "delegate",
      "outputs": [],
      "stateMutability": "nonpayable",
      "type": "function"
    },
    {
      "inputs": [
        {
          "internalType": "address",
          "name": "delegatee",
          "type": "address"
        },
        {
          "internalType": "uint256",
          "name": "nonce",
          "type": "uint256"
        },
        {
          "internalType": "uint256",
          "name": "expiry",
          "type": "uint256"
        },
        {
          "internalType": "uint8",
          "name": "v",
          "type": "uint8"
        },
        {
          "internalType": "bytes32",
          "name": "r",
          "type": "bytes32"
        },
        {
          "internalType": "bytes32",
          "name": "s",
          "type": "bytes32"
        }
      ],
      "name": "delegateBySig",
      "outputs": [],
      "stateMutability": "nonpayable",
      "type": "function"
    },
    {
      "inputs": [
        {
          "internalType": "address",
          "name": "account",
          "type": "address"
        }
      ],
      "name": "delegates",
      "outputs": [
        {
          "internalType": "address",
          "name": "",
          "type": "address"
        }
      ],
      "stateMutability": "view",
      "type": "function"
    },
    {
      "inputs": [
        {
          "internalType": "uint256",
          "name": "blockNumber",
          "type": "uint256"
        }
      ],
      "name": "getPastTotalSupply",
      "outputs": [
        {
          "internalType": "uint256",
          "name": "",
          "type": "uint256"
        }
      ],
      "stateMutability": "view",
      "type": "function"
    },
    {
      "inputs": [
        {
          "internalType": "address",
          "name": "account",
          "type": "address"
        },
        {
          "internalType": "uint256",
          "name": "blockNumber",
          "type": "uint256"
        }
      ],
      "name": "getPastVotes",
      "outputs": [
        {
          "internalType": "uint256",
          "name": "",
          "type": "uint256"
        }
      ],
      "stateMutability": "view",
      "type": "function"
    },
    {
      "inputs": [
        {
          "internalType": "address",
          "name": "account",
          "type": "address"
        }
      ],
      "name": "getVotes",
      "outputs": [
        {
          "internalType": "uint256",
          "name": "",
          "type": "uint256"
        }
      ],
      "stateMutability": "view",
      "type": "function"
    },
    {
      "inputs": [
        {
          "internalType": "address",
          "name": "spender",
          "type": "address"
        },
        {
          "internalType": "uint256",
          "name": "addedValue",
          "type": "uint256"
        }
      ],
      "name": "increaseAllowance",
      "outputs": [
        {
          "internalType": "bool",
          "name": "",
          "type": "bool"
        }
      ],
      "stateMutability": "nonpayable",
      "type": "function"
    },
    {
      "inputs": [
        {
          "internalType": "address",
          "name": "to",
          "type": "address"
        },
        {
          "internalType": "uint256",
          "name": "amount",
          "type": "uint256"
        }
      ],
      "name": "issueToken",
      "outputs": [],
      "stateMutability": "nonpayable",
      "type": "function"
    },
    {
      "inputs": [],
      "name": "name",
      "outputs": [
        {
          "internalType": "string",
          "name": "",
          "type": "string"
        }
      ],
      "stateMutability": "view",
      "type": "function"
    },
    {
      "inputs": [
        {
          "internalType": "address",
          "name": "owner",
          "type": "address"
        }
      ],
      "name": "nonces",
      "outputs": [
        {
          "internalType": "uint256",
          "name": "",
          "type": "uint256"
        }
      ],
      "stateMutability": "view",
      "type": "function"
    },
    {
      "inputs": [
        {
          "internalType": "address",
          "name": "account",
          "type": "address"
        }
      ],
      "name": "numCheckpoints",
      "outputs": [
        {
          "internalType": "uint32",
          "name": "",
          "type": "uint32"
        }
      ],
      "stateMutability": "view",
      "type": "function"
    },
    {
      "inputs": [
        {
          "internalType": "address",
          "name": "owner",
          "type": "address"
        },
        {
          "internalType": "address",
          "name": "spender",
          "type": "address"
        },
        {
          "internalType": "uint256",
          "name": "value",
          "type": "uint256"
        },
        {
          "internalType": "uint256",
          "name": "deadline",
          "type": "uint256"
        },
        {
          "internalType": "uint8",
          "name": "v",
          "type": "uint8"
        },
        {
          "internalType": "bytes32",
          "name": "r",
          "type": "bytes32"
        },
        {
          "internalType": "bytes32",
          "name": "s",
          "type": "bytes32"
        }
      ],
      "name": "permit",
      "outputs": [],
      "stateMutability": "nonpayable",
      "type": "function"
    },
    {
      "inputs": [],
      "name": "symbol",
      "outputs": [
        {
          "internalType": "string",
          "name": "",
          "type": "string"
        }
      ],
      "stateMutability": "view",
      "type": "function"
    },
    {
      "inputs": [],
      "name": "totalSupply",
      "outputs": [
        {
          "internalType": "uint256",
          "name": "",
          "type": "uint256"
        }
      ],
      "stateMutability": "view",
      "type": "function"
    },
    {
      "inputs": [
        {
          "internalType": "address",
          "name": "to",
          "type": "address"
        },
        {
          "internalType": "uint256",
          "name": "amount",
          "type": "uint256"
        }
      ],
      "name": "transfer",
      "outputs": [
        {
          "internalType": "bool",
          "name": "",
          "type": "bool"
        }
      ],
      "stateMutability": "nonpayable",
      "type": "function"
    },
    {
      "inputs": [
        {
          "internalType": "address",
          "name": "from",
          "type": "address"
        },
        {
          "internalType": "address",
          "name": "to",
          "type": "address"
        },
        {
          "internalType": "uint256",
          "name": "amount",
          "type": "uint256"
        }
      ],
      "name": "transferFrom",
      "outputs": [
        {
          "internalType": "bool",
          "name": "",
          "type": "bool"
        }
      ],
      "stateMutability": "nonpayable",
      "type": "function"
    }
  ],
  "bytecode": "0x6101406040523480156200001257600080fd5b506040516200261938038062002619833981016040819052620000359162000891565b8280604051806040016040528060018152602001603160f81b815250858581600390805190602001906200006b92919062000728565b5080516200008190600490602084019062000728565b5050825160209384012082519284019290922060e08390526101008190524660a0818152604080517f8b73c3c69bb8fe3d512ecc4cf759cc79239f7b179b0ffacaa9a75d522b39400f818901819052818301979097526060810194909452608080850193909352308483018190528151808603909301835260c094850190915281519190960120905292909252610120525062000121905033826200012a565b505050620009a1565b6200014182826200014560201b62000a321760201c565b5050565b6200015c8282620001fc60201b62000ac21760201c565b6001600160e01b0362000170620002eb8216565b1115620001dd5760405162461bcd60e51b815260206004820152603060248201527f4552433230566f7465733a20746f74616c20737570706c79207269736b73206f60448201526f766572666c6f77696e6720766f74657360801b60648201526084015b60405180910390fd5b620001f6600962000ba9620002f160201b178362000306565b50505050565b6001600160a01b038216620002545760405162461bcd60e51b815260206004820152601f60248201527f45524332303a206d696e7420746f20746865207a65726f2061646472657373006044820152606401620001d4565b80600260008282546200026891906200091a565b90915550506001600160a01b03821660009081526020819052604081208054839290620002979084906200091a565b90915550506040518181526001600160a01b038316906000907fddf252ad1be2c89b69c2b068fc378daa952ba7f163c4a11628f55a4df523b3ef9060200160405180910390a36200014160008383620004bd565b60025490565b6000620002ff82846200091a565b9392505050565b8254600090819080156200035857856200032260018362000935565b815481106200033557620003356200094f565b60009182526020909120015464010000000090046001600160e01b03166200035b565b60005b6001600160e01b031692506200037283858760201c565b9150600081118015620003b6575043866200038f60018462000935565b81548110620003a257620003a26200094f565b60009182526020909120015463ffffffff16145b156200042a57620003d282620004d560201b62000bb51760201c565b86620003e060018462000935565b81548110620003f357620003f36200094f565b9060005260206000200160000160046101000a8154816001600160e01b0302191690836001600160e01b03160217905550620004af565b8560405180604001604052806200044c436200054460201b62000c221760201c565b63ffffffff1681526020016200046d85620004d560201b62000bb51760201c565b6001600160e01b0390811690915282546001810184556000938452602093849020835194909301519091166401000000000263ffffffff909316929092179101555b50935093915050565b505050565b620004b8838383620005ab60201b62000c871760201c565b60006001600160e01b03821115620005405760405162461bcd60e51b815260206004820152602760248201527f53616665436173743a2076616c756520646f65736e27742066697420696e20326044820152663234206269747360c81b6064820152608401620001d4565b5090565b600063ffffffff821115620005405760405162461bcd60e51b815260206004820152602660248201527f53616665436173743a2076616c756520646f65736e27742066697420696e203360448201526532206269747360d01b6064820152608401620001d4565b620005c3838383620004b860201b62000cb91760201c565b6001600160a01b03838116600090815260076020526040808220548584168352912054620004b892918216911683818314801590620006025750600081115b15620004b8576001600160a01b038316156200068f576001600160a01b0383166000908152600860209081526040822082916200064c91906200071a901b62000cbe178562000306565b91509150846001600160a01b0316600080516020620025f9833981519152838360405162000684929190918252602082015260400190565b60405180910390a250505b6001600160a01b03821615620004b8576001600160a01b038216600090815260086020908152604082208291620006d39190620002f1901b62000ba9178562000306565b91509150836001600160a01b0316600080516020620025f983398151915283836040516200070b929190918252602082015260400190565b60405180910390a25050505050565b6000620002ff828462000935565b828054620007369062000965565b90600052602060002090601f0160209004810192826200075a5760008555620007a5565b82601f106200077557805160ff1916838001178555620007a5565b82800160010185558215620007a5579182015b82811115620007a557825182559160200191906001019062000788565b50620005409291505b80821115620005405760008155600101620007ae565b634e487b7160e01b600052604160045260246000fd5b600082601f830112620007ec57600080fd5b81516001600160401b0380821115620008095762000809620007c4565b604051601f8301601f19908116603f01168101908282118183101715620008345762000834620007c4565b816040528381526020925086838588010111156200085157600080fd5b600091505b8382101562000875578582018301518183018401529082019062000856565b83821115620008875760008385830101525b9695505050505050565b600080600060608486031215620008a757600080fd5b83516001600160401b0380821115620008bf57600080fd5b620008cd87838801620007da565b94506020860151915080821115620008e457600080fd5b50620008f386828701620007da565b925050604084015190509250925092565b634e487b7160e01b600052601160045260246000fd5b6000821982111562000930576200093062000904565b500190565b6000828210156200094a576200094a62000904565b500390565b634e487b7160e01b600052603260045260246000fd5b600181811c908216806200097a57607f821691505b6020821081036200099b57634e487b7160e01b600052602260045260246000fd5b50919050565b60805160a05160c05160e0516101005161012051611c08620009f160003960006110c00152600061110f015260006110ea015260006110430152600061106d015260006110970152611c086000f3fe608060405234801561001057600080fd5b506004361061014d5760003560e01c806370a08231116100c3578063a9059cbb1161007c578063a9059cbb146102f3578063c3cda52014610306578063d505accf14610319578063dd62ed3e1461032c578063e74a84ea1461033f578063f1127ed81461035257600080fd5b806370a08231146102765780637ecebe001461029f5780638e539e8c146102b257806395d89b41146102c55780639ab24eb0146102cd578063a457c2d7146102e057600080fd5b80633644e515116101155780633644e515146101c757806339509351146101cf5780633a46b1a8146101e2578063587cde1e146101f55780635c19a95c146102395780636fcfff451461024e57600080fd5b806306fdde0314610152578063095ea7b31461017057806318160ddd1461019357806323b872dd146101a5578063313ce567146101b8575b600080fd5b61015a61038f565b60405161016791906118ba565b60405180910390f35b61018361017e36600461192b565b610421565b6040519015158152602001610167565b6002545b604051908152602001610167565b6101836101b3366004611955565b610439565b60405160128152602001610167565b61019761045d565b6101836101dd36600461192b565b61046c565b6101976101f036600461192b565b61048e565b610221610203366004611991565b6001600160a01b039081166000908152600760205260409020541690565b6040516001600160a01b039091168152602001610167565b61024c610247366004611991565b61050d565b005b61026161025c366004611991565b61051a565b60405163ffffffff9091168152602001610167565b610197610284366004611991565b6001600160a01b031660009081526020819052604090205490565b6101976102ad366004611991565b610542565b6101976102c03660046119ac565b610560565b61015a6105bc565b6101976102db366004611991565b6105cb565b6101836102ee36600461192b565b610652565b61018361030136600461192b565b6106cd565b61024c6103143660046119d6565b6106db565b61024c610327366004611a2e565b610811565b61019761033a366004611a98565b610975565b61024c61034d36600461192b565b6109a0565b610365610360366004611acb565b6109ae565b60408051825163ffffffff1681526020928301516001600160e01b03169281019290925201610167565b60606003805461039e90611b0b565b80601f01602080910402602001604051908101604052809291908181526020018280546103ca90611b0b565b80156104175780601f106103ec57610100808354040283529160200191610417565b820191906000526020600020905b8154815290600101906020018083116103fa57829003601f168201915b5050505050905090565b60003361042f818585610cca565b5060019392505050565b600033610447858285610dee565b610452858585610e62565b506001949350505050565b6000610467611036565b905090565b60003361042f81858561047f8383610975565b6104899190611b55565b610cca565b60004382106104e45760405162461bcd60e51b815260206004820152601f60248201527f4552433230566f7465733a20626c6f636b206e6f7420796574206d696e65640060448201526064015b60405180910390fd5b6001600160a01b0383166000908152600860205260409020610506908361115d565b9392505050565b610517338261121a565b50565b6001600160a01b03811660009081526008602052604081205461053c90610c22565b92915050565b6001600160a01b03811660009081526005602052604081205461053c565b60004382106105b15760405162461bcd60e51b815260206004820152601f60248201527f4552433230566f7465733a20626c6f636b206e6f7420796574206d696e65640060448201526064016104db565b61053c60098361115d565b60606004805461039e90611b0b565b6001600160a01b038116600090815260086020526040812054801561063f576001600160a01b038316600090815260086020526040902061060d600183611b6d565b8154811061061d5761061d611b84565b60009182526020909120015464010000000090046001600160e01b0316610642565b60005b6001600160e01b03169392505050565b600033816106608286610975565b9050838110156106c05760405162461bcd60e51b815260206004820152602560248201527f45524332303a2064656372656173656420616c6c6f77616e63652062656c6f77604482015264207a65726f60d81b60648201526084016104db565b6104528286868403610cca565b60003361042f818585610e62565b8342111561072b5760405162461bcd60e51b815260206004820152601d60248201527f4552433230566f7465733a207369676e6174757265206578706972656400000060448201526064016104db565b604080517fe48329057bfd03d55e49b547132e39cffd9c1820ad7b9d4c5307691425d15adf60208201526001600160a01b0388169181019190915260608101869052608081018590526000906107a59061079d9060a00160405160208183030381529060405280519060200120611293565b8585856112e1565b90506107b081611309565b86146107fe5760405162461bcd60e51b815260206004820152601960248201527f4552433230566f7465733a20696e76616c6964206e6f6e63650000000000000060448201526064016104db565b610808818861121a565b50505050505050565b834211156108615760405162461bcd60e51b815260206004820152601d60248201527f45524332305065726d69743a206578706972656420646561646c696e6500000060448201526064016104db565b60007f6e71edae12b1b97f4d1f60370fef10105fa2faae0126114a169c64845d6126c98888886108908c611309565b6040805160208101969096526001600160a01b0394851690860152929091166060840152608083015260a082015260c0810186905260e00160405160208183030381529060405280519060200120905060006108eb82611293565b905060006108fb828787876112e1565b9050896001600160a01b0316816001600160a01b03161461095e5760405162461bcd60e51b815260206004820152601e60248201527f45524332305065726d69743a20696e76616c6964207369676e6174757265000060448201526064016104db565b6109698a8a8a610cca565b50505050505050505050565b6001600160a01b03918216600090815260016020908152604080832093909416825291909152205490565b6109aa8282611331565b5050565b60408051808201909152600080825260208201526001600160a01b0383166000908152600860205260409020805463ffffffff84169081106109f2576109f2611b84565b60009182526020918290206040805180820190915291015463ffffffff8116825264010000000090046001600160e01b0316918101919091529392505050565b610a3c8282610ac2565b6002546001600160e01b031015610aae5760405162461bcd60e51b815260206004820152603060248201527f4552433230566f7465733a20746f74616c20737570706c79207269736b73206f60448201526f766572666c6f77696e6720766f74657360801b60648201526084016104db565b610abc6009610ba98361133b565b50505050565b6001600160a01b038216610b185760405162461bcd60e51b815260206004820152601f60248201527f45524332303a206d696e7420746f20746865207a65726f20616464726573730060448201526064016104db565b8060026000828254610b2a9190611b55565b90915550506001600160a01b03821660009081526020819052604081208054839290610b57908490611b55565b90915550506040518181526001600160a01b038316906000907fddf252ad1be2c89b69c2b068fc378daa952ba7f163c4a11628f55a4df523b3ef9060200160405180910390a36109aa600083836114b4565b60006105068284611b55565b60006001600160e01b03821115610c1e5760405162461bcd60e51b815260206004820152602760248201527f53616665436173743a2076616c756520646f65736e27742066697420696e20326044820152663234206269747360c81b60648201526084016104db565b5090565b600063ffffffff821115610c1e5760405162461bcd60e51b815260206004820152602660248201527f53616665436173743a2076616c756520646f65736e27742066697420696e203360448201526532206269747360d01b60648201526084016104db565b6001600160a01b03838116600090815260076020526040808220548584168352912054610cb9929182169116836114bf565b505050565b60006105068284611b6d565b6001600160a01b038316610d2c5760405162461bcd60e51b8152602060048201526024808201527f45524332303a20617070726f76652066726f6d20746865207a65726f206164646044820152637265737360e01b60648201526084016104db565b6001600160a01b038216610d8d5760405162461bcd60e51b815260206004820152602260248201527f45524332303a20617070726f766520746f20746865207a65726f206164647265604482015261737360f01b60648201526084016104db565b6001600160a01b0383811660008181526001602090815260408083209487168084529482529182902085905590518481527f8c5be1e5ebec7d5bd14f71427d1e84f3dd0314c0f7b2291e5b200ac8c7c3b925910160405180910390a3505050565b6000610dfa8484610975565b90506000198114610abc5781811015610e555760405162461bcd60e51b815260206004820152601d60248201527f45524332303a20696e73756666696369656e7420616c6c6f77616e636500000060448201526064016104db565b610abc8484848403610cca565b6001600160a01b038316610ec65760405162461bcd60e51b815260206004820152602560248201527f45524332303a207472616e736665722066726f6d20746865207a65726f206164604482015264647265737360d81b60648201526084016104db565b6001600160a01b038216610f285760405162461bcd60e51b815260206004820152602360248201527f45524332303a207472616e7366657220746f20746865207a65726f206164647260448201526265737360e81b60648201526084016104db565b6001600160a01b03831660009081526020819052604090205481811015610fa05760405162461bcd60e51b815260206004820152602660248201527f45524332303a207472616e7366657220616d6f756e7420657863656564732062604482015265616c616e636560d01b60648201526084016104db565b6001600160a01b03808516600090815260208190526040808220858503905591851681529081208054849290610fd7908490611b55565b92505081905550826001600160a01b0316846001600160a01b03167fddf252ad1be2c89b69c2b068fc378daa952ba7f163c4a11628f55a4df523b3ef8460405161102391815260200190565b60405180910390a3610abc8484846114b4565b6000306001600160a01b037f00000000000000000000000000000000000000000000000000000000000000001614801561108f57507f000000000000000000000000000000000000000000000000000000000000000046145b156110b957507f000000000000000000000000000000000000000000000000000000000000000090565b50604080517f00000000000000000000000000000000000000000000000000000000000000006020808301919091527f0000000000000000000000000000000000000000000000000000000000000000828401527f000000000000000000000000000000000000000000000000000000000000000060608301524660808301523060a0808401919091528351808403909101815260c0909201909252805191012090565b8154600090815b818110156111c157600061117882846115fc565b90508486828154811061118d5761118d611b84565b60009182526020909120015463ffffffff1611156111ad578092506111bb565b6111b8816001611b55565b91505b50611164565b811561120557846111d3600184611b6d565b815481106111e3576111e3611b84565b60009182526020909120015464010000000090046001600160e01b0316611208565b60005b6001600160e01b031695945050505050565b6001600160a01b038281166000818152600760208181526040808420805485845282862054949093528787166001600160a01b03198416811790915590519190951694919391928592917f3134e8a2e6d97e929a7e54011ea5485d7d196dd5f0ba4d4ef95803e8e3fc257f9190a4610abc8284836114bf565b600061053c6112a0611036565b8360405161190160f01b6020820152602281018390526042810182905260009060620160405160208183030381529060405280519060200120905092915050565b60008060006112f287878787611617565b915091506112ff81611704565b5095945050505050565b6001600160a01b03811660009081526005602052604090208054600181018255905b50919050565b6109aa8282610a32565b8254600090819080156113865785611354600183611b6d565b8154811061136457611364611b84565b60009182526020909120015464010000000090046001600160e01b0316611389565b60005b6001600160e01b031692506113a283858763ffffffff16565b91506000811180156113e0575043866113bc600184611b6d565b815481106113cc576113cc611b84565b60009182526020909120015463ffffffff16145b15611440576113ee82610bb5565b866113fa600184611b6d565b8154811061140a5761140a611b84565b9060005260206000200160000160046101000a8154816001600160e01b0302191690836001600160e01b031602179055506114ab565b85604051806040016040528061145543610c22565b63ffffffff16815260200161146985610bb5565b6001600160e01b0390811690915282546001810184556000938452602093849020835194909301519091166401000000000263ffffffff909316929092179101555b50935093915050565b610cb9838383610c87565b816001600160a01b0316836001600160a01b0316141580156114e15750600081115b15610cb9576001600160a01b0383161561156f576001600160a01b0383166000908152600860205260408120819061151c90610cbe8561133b565b91509150846001600160a01b03167fdec2bacdd2f05b59de34da9b523dff8be42e5e38e818c82fdb0bae774387a7248383604051611564929190918252602082015260400190565b60405180910390a250505b6001600160a01b03821615610cb9576001600160a01b038216600090815260086020526040812081906115a590610ba98561133b565b91509150836001600160a01b03167fdec2bacdd2f05b59de34da9b523dff8be42e5e38e818c82fdb0bae774387a72483836040516115ed929190918252602082015260400190565b60405180910390a25050505050565b600061160b6002848418611b9a565b61050690848416611b55565b6000807f7fffffffffffffffffffffffffffffff5d576e7357a4501ddfe92f46681b20a083111561164e57506000905060036116fb565b8460ff16601b1415801561166657508460ff16601c14155b1561167757506000905060046116fb565b6040805160008082526020820180845289905260ff881692820192909252606081018690526080810185905260019060a0016020604051602081039080840390855afa1580156116cb573d6000803e3d6000fd5b5050604051601f1901519150506001600160a01b0381166116f4576000600192509250506116fb565b9150600090505b94509492505050565b600081600481111561171857611718611bbc565b036117205750565b600181600481111561173457611734611bbc565b036117815760405162461bcd60e51b815260206004820152601860248201527f45434453413a20696e76616c6964207369676e6174757265000000000000000060448201526064016104db565b600281600481111561179557611795611bbc565b036117e25760405162461bcd60e51b815260206004820152601f60248201527f45434453413a20696e76616c6964207369676e6174757265206c656e6774680060448201526064016104db565b60038160048111156117f6576117f6611bbc565b0361184e5760405162461bcd60e51b815260206004820152602260248201527f45434453413a20696e76616c6964207369676e6174757265202773272076616c604482015261756560f01b60648201526084016104db565b600481600481111561186257611862611bbc565b036105175760405162461bcd60e51b815260206004820152602260248201527f45434453413a20696e76616c6964207369676e6174757265202776272076616c604482015261756560f01b60648201526084016104db565b600060208083528351808285015260005b818110156118e7578581018301518582016040015282016118cb565b818111156118f9576000604083870101525b50601f01601f1916929092016040019392505050565b80356001600160a01b038116811461192657600080fd5b919050565b6000806040838503121561193e57600080fd5b6119478361190f565b946020939093013593505050565b60008060006060848603121561196a57600080fd5b6119738461190f565b92506119816020850161190f565b9150604084013590509250925092565b6000602082840312156119a357600080fd5b6105068261190f565b6000602082840312156119be57600080fd5b5035919050565b803560ff8116811461192657600080fd5b60008060008060008060c087890312156119ef57600080fd5b6119f88761190f565b95506020870135945060408701359350611a14606088016119c5565b92506080870135915060a087013590509295509295509295565b600080600080600080600060e0888a031215611a4957600080fd5b611a528861190f565b9650611a606020890161190f565b95506040880135945060608801359350611a7c608089016119c5565b925060a0880135915060c0880135905092959891949750929550565b60008060408385031215611aab57600080fd5b611ab48361190f565b9150611ac26020840161190f565b90509250929050565b60008060408385031215611ade57600080fd5b611ae78361190f565b9150602083013563ffffffff81168114611b0057600080fd5b809150509250929050565b600181811c90821680611b1f57607f821691505b60208210810361132b57634e487b7160e01b600052602260045260246000fd5b634e487b7160e01b600052601160045260246000fd5b60008219821115611b6857611b68611b3f565b500190565b600082821015611b7f57611b7f611b3f565b500390565b634e487b7160e01b600052603260045260246000fd5b600082611bb757634e487b7160e01b600052601260045260246000fd5b500490565b634e487b7160e01b600052602160045260246000fdfea264697066735822122006143b81e24e05aa590bbb6c3e31e5188f4e41af93e7938b8282294d820c64b164736f6c634300080d0033dec2bacdd2f05b59de34da9b523dff8be42e5e38e818c82fdb0bae774387a724",
  "linkReferences": {},
  "deployedLinkReferences": {}
}