{
  "_format": "hh-sol-artifact-1",
  "contractName": "DaoGovernor",
  "sourceName": "contracts/DaoGovernor.sol",
  "abi": [
    {
      "inputs": [
        {
          "internalType": "contract IVotes",
          "name": "_token",
          "type": "address"
        },
        {
          "internalType": "contract TimelockController",
          "name": "_timeLockController",
          "type": "address"
        },
        {
          "internalType": "uint256",
          "name": "_votingDelay",
          "type": "uint256"
        },
        {
          "internalType": "uint256",
          "name": "_votingPeriod",
          "type": "uint256"
        },
        {
          "internalType": "uint256",
          "name": "_threshold",
          "type": "uint256"
        },
        {
          "internalType": "uint256",
          "name": "_quorumPercentage",
          "type": "uint256"
        }
      ],
      "stateMutability": "nonpayable",
      "type": "constructor"
    },
    {
      "inputs": [],
      "name": "Empty",
      "type": "error"
    },
    {
      "anonymous": false,
      "inputs": [
        {
          "indexed": false,
          "internalType": "uint256",
          "name": "proposalId",
          "type": "uint256"
        }
      ],
      "name": "ProposalCanceled",
      "type": "event"
    },
    {
      "anonymous": false,
      "inputs": [
        {
          "indexed": false,
          "internalType": "uint256",
          "name": "proposalId",
          "type": "uint256"
        },
        {
          "indexed": false,
          "internalType": "address",
          "name": "proposer",
          "type": "address"
        },
        {
          "indexed": false,
          "internalType": "address[]",
          "name": "targets",
          "type": "address[]"
        },
        {
          "indexed": false,
          "internalType": "uint256[]",
          "name": "values",
          "type": "uint256[]"
        },
        {
          "indexed": false,
          "internalType": "string[]",
          "name": "signatures",
          "type": "string[]"
        },
        {
          "indexed": false,
          "internalType": "bytes[]",
          "name": "calldatas",
          "type": "bytes[]"
        },
        {
          "indexed": false,
          "internalType": "uint256",
          "name": "startBlock",
          "type": "uint256"
        },
        {
          "indexed": false,
          "internalType": "uint256",
          "name": "endBlock",
          "type": "uint256"
        },
        {
          "indexed": false,
          "internalType": "string",
          "name": "description",
          "type": "string"
        }
      ],
      "name": "ProposalCreated",
      "type": "event"
    },
    {
      "anonymous": false,
      "inputs": [
        {
          "indexed": false,
          "internalType": "uint256",
          "name": "proposalId",
          "type": "uint256"
        }
      ],
      "name": "ProposalExecuted",
      "type": "event"
    },
    {
      "anonymous": false,
      "inputs": [
        {
          "indexed": false,
          "internalType": "uint256",
          "name": "proposalId",
          "type": "uint256"
        },
        {
          "indexed": false,
          "internalType": "uint256",
          "name": "eta",
          "type": "uint256"
        }
      ],
      "name": "ProposalQueued",
      "type": "event"
    },
    {
      "anonymous": false,
      "inputs": [
        {
          "indexed": false,
          "internalType": "uint256",
          "name": "oldProposalThreshold",
          "type": "uint256"
        },
        {
          "indexed": false,
          "internalType": "uint256",
          "name": "newProposalThreshold",
          "type": "uint256"
        }
      ],
      "name": "ProposalThresholdSet",
      "type": "event"
    },
    {
      "anonymous": false,
      "inputs": [
        {
          "indexed": false,
          "internalType": "uint256",
          "name": "oldQuorumNumerator",
          "type": "uint256"
        },
        {
          "indexed": false,
          "internalType": "uint256",
          "name": "newQuorumNumerator",
          "type": "uint256"
        }
      ],
      "name": "QuorumNumeratorUpdated",
      "type": "event"
    },
    {
      "anonymous": false,
      "inputs": [
        {
          "indexed": false,
          "internalType": "address",
          "name": "oldTimelock",
          "type": "address"
        },
        {
          "indexed": false,
          "internalType": "address",
          "name": "newTimelock",
          "type": "address"
        }
      ],
      "name": "TimelockChange",
      "type": "event"
    },
    {
      "anonymous": false,
      "inputs": [
        {
          "indexed": true,
          "internalType": "address",
          "name": "voter",
          "type": "address"
        },
        {
          "indexed": false,
          "internalType": "uint256",
          "name": "proposalId",
          "type": "uint256"
        },
        {
          "indexed": false,
          "internalType": "uint8",
          "name": "support",
          "type": "uint8"
        },
        {
          "indexed": false,
          "internalType": "uint256",
          "name": "weight",
          "type": "uint256"
        },
        {
          "indexed": false,
          "internalType": "string",
          "name": "reason",
          "type": "string"
        }
      ],
      "name": "VoteCast",
      "type": "event"
    },
    {
      "anonymous": false,
      "inputs": [
        {
          "indexed": true,
          "internalType": "address",
          "name": "voter",
          "type": "address"
        },
        {
          "indexed": false,
          "internalType": "uint256",
          "name": "proposalId",
          "type": "uint256"
        },
        {
          "indexed": false,
          "internalType": "uint8",
          "name": "support",
          "type": "uint8"
        },
        {
          "indexed": false,
          "internalType": "uint256",
          "name": "weight",
          "type": "uint256"
        },
        {
          "indexed": false,
          "internalType": "string",
          "name": "reason",
          "type": "string"
        },
        {
          "indexed": false,
          "internalType": "bytes",
          "name": "params",
          "type": "bytes"
        }
      ],
      "name": "VoteCastWithParams",
      "type": "event"
    },
    {
      "anonymous": false,
      "inputs": [
        {
          "indexed": false,
          "internalType": "uint256",
          "name": "oldVotingDelay",
          "type": "uint256"
        },
        {
          "indexed": false,
          "internalType": "uint256",
          "name": "newVotingDelay",
          "type": "uint256"
        }
      ],
      "name": "VotingDelaySet",
      "type": "event"
    },
    {
      "anonymous": false,
      "inputs": [
        {
          "indexed": false,
          "internalType": "uint256",
          "name": "oldVotingPeriod",
          "type": "uint256"
        },
        {
          "indexed": false,
          "internalType": "uint256",
          "name": "newVotingPeriod",
          "type": "uint256"
        }
      ],
      "name": "VotingPeriodSet",
      "type": "event"
    },
    {
      "inputs": [],
      "name": "BALLOT_TYPEHASH",
      "outputs": [
        {
          "internalType": "bytes32",
          "name": "",
          "type": "bytes32"
        }
      ],
      "stateMutability": "view",
      "type": "function"
    },
    {
      "inputs": [],
      "name": "COUNTING_MODE",
      "outputs": [
        {
          "internalType": "string",
          "name": "",
          "type": "string"
        }
      ],
      "stateMutability": "pure",
      "type": "function"
    },
    {
      "inputs": [],
      "name": "EXTENDED_BALLOT_TYPEHASH",
      "outputs": [
        {
          "internalType": "bytes32",
          "name": "",
          "type": "bytes32"
        }
      ],
      "stateMutability": "view",
      "type": "function"
    },
    {
      "inputs": [
        {
          "internalType": "uint256",
          "name": "proposalId",
          "type": "uint256"
        },
        {
          "internalType": "uint8",
          "name": "support",
          "type": "uint8"
        }
      ],
      "name": "castVote",
      "outputs": [
        {
          "internalType": "uint256",
          "name": "",
          "type": "uint256"
        }
      ],
      "stateMutability": "nonpayable",
      "type": "function"
    },
    {
      "inputs": [
        {
          "internalType": "uint256",
          "name": "proposalId",
          "type": "uint256"
        },
        {
          "internalType": "uint8",
          "name": "support",
          "type": "uint8"
        },
        {
          "internalType": "uint8",
          "name": "v",
          "type": "uint8"
        },
        {
          "internalType": "bytes32",
          "name": "r",
          "type": "bytes32"
        },
        {
          "internalType": "bytes32",
          "name": "s",
          "type": "bytes32"
        }
      ],
      "name": "castVoteBySig",
      "outputs": [
        {
          "internalType": "uint256",
          "name": "",
          "type": "uint256"
        }
      ],
      "stateMutability": "nonpayable",
      "type": "function"
    },
    {
      "inputs": [
        {
          "internalType": "uint256",
          "name": "proposalId",
          "type": "uint256"
        },
        {
          "internalType": "uint8",
          "name": "support",
          "type": "uint8"
        },
        {
          "internalType": "string",
          "name": "reason",
          "type": "string"
        }
      ],
      "name": "castVoteWithReason",
      "outputs": [
        {
          "internalType": "uint256",
          "name": "",
          "type": "uint256"
        }
      ],
      "stateMutability": "nonpayable",
      "type": "function"
    },
    {
      "inputs": [
        {
          "internalType": "uint256",
          "name": "proposalId",
          "type": "uint256"
        },
        {
          "internalType": "uint8",
          "name": "support",
          "type": "uint8"
        },
        {
          "internalType": "string",
          "name": "reason",
          "type": "string"
        },
        {
          "internalType": "bytes",
          "name": "params",
          "type": "bytes"
        }
      ],
      "name": "castVoteWithReasonAndParams",
      "outputs": [
        {
          "internalType": "uint256",
          "name": "",
          "type": "uint256"
        }
      ],
      "stateMutability": "nonpayable",
      "type": "function"
    },
    {
      "inputs": [
        {
          "internalType": "uint256",
          "name": "proposalId",
          "type": "uint256"
        },
        {
          "internalType": "uint8",
          "name": "support",
          "type": "uint8"
        },
        {
          "internalType": "string",
          "name": "reason",
          "type": "string"
        },
        {
          "internalType": "bytes",
          "name": "params",
          "type": "bytes"
        },
        {
          "internalType": "uint8",
          "name": "v",
          "type": "uint8"
        },
        {
          "internalType": "bytes32",
          "name": "r",
          "type": "bytes32"
        },
        {
          "internalType": "bytes32",
          "name": "s",
          "type": "bytes32"
        }
      ],
      "name": "castVoteWithReasonAndParamsBySig",
      "outputs": [
        {
          "internalType": "uint256",
          "name": "",
          "type": "uint256"
        }
      ],
      "stateMutability": "nonpayable",
      "type": "function"
    },
    {
      "inputs": [
        {
          "internalType": "address[]",
          "name": "targets",
          "type": "address[]"
        },
        {
          "internalType": "uint256[]",
          "name": "values",
          "type": "uint256[]"
        },
        {
          "internalType": "bytes[]",
          "name": "calldatas",
          "type": "bytes[]"
        },
        {
          "internalType": "bytes32",
          "name": "descriptionHash",
          "type": "bytes32"
        }
      ],
      "name": "execute",
      "outputs": [
        {
          "internalType": "uint256",
          "name": "",
          "type": "uint256"
        }
      ],
      "stateMutability": "payable",
      "type": "function"
    },
    {
      "inputs": [
        {
          "internalType": "address",
          "name": "account",
          "type": "address"
        },
        {
          "internalType": "uint256",
          "name": "blockNumber",
          "type": "uint256"
        }
      ],
      "name": "getVotes",
      "outputs": [
        {
          "internalType": "uint256",
          "name": "",
          "type": "uint256"
        }
      ],
      "stateMutability": "view",
      "type": "function"
    },
    {
      "inputs": [
        {
          "internalType": "address",
          "name": "account",
          "type": "address"
        },
        {
          "internalType": "uint256",
          "name": "blockNumber",
          "type": "uint256"
        },
        {
          "internalType": "bytes",
          "name": "params",
          "type": "bytes"
        }
      ],
      "name": "getVotesWithParams",
      "outputs": [
        {
          "internalType": "uint256",
          "name": "",
          "type": "uint256"
        }
      ],
      "stateMutability": "view",
      "type": "function"
    },
    {
      "inputs": [
        {
          "internalType": "uint256",
          "name": "proposalId",
          "type": "uint256"
        },
        {
          "internalType": "address",
          "name": "account",
          "type": "address"
        }
      ],
      "name": "hasVoted",
      "outputs": [
        {
          "internalType": "bool",
          "name": "",
          "type": "bool"
        }
      ],
      "stateMutability": "view",
      "type": "function"
    },
    {
      "inputs": [
        {
          "internalType": "address[]",
          "name": "targets",
          "type": "address[]"
        },
        {
          "internalType": "uint256[]",
          "name": "values",
          "type": "uint256[]"
        },
        {
          "internalType": "bytes[]",
          "name": "calldatas",
          "type": "bytes[]"
        },
        {
          "internalType": "bytes32",
          "name": "descriptionHash",
          "type": "bytes32"
        }
      ],
      "name": "hashProposal",
      "outputs": [
        {
          "internalType": "uint256",
          "name": "",
          "type": "uint256"
        }
      ],
      "stateMutability": "pure",
      "type": "function"
    },
    {
      "inputs": [],
      "name": "name",
      "outputs": [
        {
          "internalType": "string",
          "name": "",
          "type": "string"
        }
      ],
      "stateMutability": "view",
      "type": "function"
    },
    {
      "inputs": [
        {
          "internalType": "address",
          "name": "",
          "type": "address"
        },
        {
          "internalType": "address",
          "name": "",
          "type": "address"
        },
        {
          "internalType": "uint256[]",
          "name": "",
          "type": "uint256[]"
        },
        {
          "internalType": "uint256[]",
          "name": "",
          "type": "uint256[]"
        },
        {
          "internalType": "bytes",
          "name": "",
          "type": "bytes"
        }
      ],
      "name": "onERC1155BatchReceived",
      "outputs": [
        {
          "internalType": "bytes4",
          "name": "",
          "type": "bytes4"
        }
      ],
      "stateMutability": "nonpayable",
      "type": "function"
    },
    {
      "inputs": [
        {
          "internalType": "address",
          "name": "",
          "type": "address"
        },
        {
          "internalType": "address",
          "name": "",
          "type": "address"
        },
        {
          "internalType": "uint256",
          "name": "",
          "type": "uint256"
        },
        {
          "internalType": "uint256",
          "name": "",
          "type": "uint256"
        },
        {
          "internalType": "bytes",
          "name": "",
          "type": "bytes"
        }
      ],
      "name": "onERC1155Received",
      "outputs": [
        {
          "internalType": "bytes4",
          "name": "",
          "type": "bytes4"
        }
      ],
      "stateMutability": "nonpayable",
      "type": "function"
    },
    {
      "inputs": [
        {
          "internalType": "address",
          "name": "",
          "type": "address"
        },
        {
          "internalType": "address",
          "name": "",
          "type": "address"
        },
        {
          "internalType": "uint256",
          "name": "",
          "type": "uint256"
        },
        {
          "internalType": "bytes",
          "name": "",
          "type": "bytes"
        }
      ],
      "name": "onERC721Received",
      "outputs": [
        {
          "internalType": "bytes4",
          "name": "",
          "type": "bytes4"
        }
      ],
      "stateMutability": "nonpayable",
      "type": "function"
    },
    {
      "inputs": [
        {
          "internalType": "uint256",
          "name": "proposalId",
          "type": "uint256"
        }
      ],
      "name": "proposalDeadline",
      "outputs": [
        {
          "internalType": "uint256",
          "name": "",
          "type": "uint256"
        }
      ],
      "stateMutability": "view",
      "type": "function"
    },
    {
      "inputs": [
        {
          "internalType": "uint256",
          "name": "proposalId",
          "type": "uint256"
        }
      ],
      "name": "proposalEta",
      "outputs": [
        {
          "internalType": "uint256",
          "name": "",
          "type": "uint256"
        }
      ],
      "stateMutability": "view",
      "type": "function"
    },
    {
      "inputs": [
        {
          "internalType": "uint256",
          "name": "proposalId",
          "type": "uint256"
        }
      ],
      "name": "proposalSnapshot",
      "outputs": [
        {
          "internalType": "uint256",
          "name": "",
          "type": "uint256"
        }
      ],
      "stateMutability": "view",
      "type": "function"
    },
    {
      "inputs": [],
      "name": "proposalThreshold",
      "outputs": [
        {
          "internalType": "uint256",
          "name": "",
          "type": "uint256"
        }
      ],
      "stateMutability": "view",
      "type": "function"
    },
    {
      "inputs": [
        {
          "internalType": "uint256",
          "name": "proposalId",
          "type": "uint256"
        }
      ],
      "name": "proposalVotes",
      "outputs": [
        {
          "internalType": "uint256",
          "name": "againstVotes",
          "type": "uint256"
        },
        {
          "internalType": "uint256",
          "name": "forVotes",
          "type": "uint256"
        },
        {
          "internalType": "uint256",
          "name": "abstainVotes",
          "type": "uint256"
        }
      ],
      "stateMutability": "view",
      "type": "function"
    },
    {
      "inputs": [
        {
          "internalType": "address[]",
          "name": "targets",
          "type": "address[]"
        },
        {
          "internalType": "uint256[]",
          "name": "values",
          "type": "uint256[]"
        },
        {
          "internalType": "bytes[]",
          "name": "calldatas",
          "type": "bytes[]"
        },
        {
          "internalType": "string",
          "name": "description",
          "type": "string"
        }
      ],
      "name": "propose",
      "outputs": [
        {
          "internalType": "uint256",
          "name": "",
          "type": "uint256"
        }
      ],
      "stateMutability": "nonpayable",
      "type": "function"
    },
    {
      "inputs": [
        {
          "internalType": "address[]",
          "name": "targets",
          "type": "address[]"
        },
        {
          "internalType": "uint256[]",
          "name": "values",
          "type": "uint256[]"
        },
        {
          "internalType": "bytes[]",
          "name": "calldatas",
          "type": "bytes[]"
        },
        {
          "internalType": "bytes32",
          "name": "descriptionHash",
          "type": "bytes32"
        }
      ],
      "name": "queue",
      "outputs": [
        {
          "internalType": "uint256",
          "name": "",
          "type": "uint256"
        }
      ],
      "stateMutability": "nonpayable",
      "type": "function"
    },
    {
      "inputs": [
        {
          "internalType": "uint256",
          "name": "blockNumber",
          "type": "uint256"
        }
      ],
      "name": "quorum",
      "outputs": [
        {
          "internalType": "uint256",
          "name": "",
          "type": "uint256"
        }
      ],
      "stateMutability": "view",
      "type": "function"
    },
    {
      "inputs": [],
      "name": "quorumDenominator",
      "outputs": [
        {
          "internalType": "uint256",
          "name": "",
          "type": "uint256"
        }
      ],
      "stateMutability": "view",
      "type": "function"
    },
    {
      "inputs": [],
      "name": "quorumNumerator",
      "outputs": [
        {
          "internalType": "uint256",
          "name": "",
          "type": "uint256"
        }
      ],
      "stateMutability": "view",
      "type": "function"
    },
    {
      "inputs": [
        {
          "internalType": "address",
          "name": "target",
          "type": "address"
        },
        {
          "internalType": "uint256",
          "name": "value",
          "type": "uint256"
        },
        {
          "internalType": "bytes",
          "name": "data",
          "type": "bytes"
        }
      ],
      "name": "relay",
      "outputs": [],
      "stateMutability": "nonpayable",
      "type": "function"
    },
    {
      "inputs": [
        {
          "internalType": "uint256",
          "name": "newProposalThreshold",
          "type": "uint256"
        }
      ],
      "name": "setProposalThreshold",
      "outputs": [],
      "stateMutability": "nonpayable",
      "type": "function"
    },
    {
      "inputs": [
        {
          "internalType": "uint256",
          "name": "newVotingDelay",
          "type": "uint256"
        }
      ],
      "name": "setVotingDelay",
      "outputs": [],
      "stateMutability": "nonpayable",
      "type": "function"
    },
    {
      "inputs": [
        {
          "internalType": "uint256",
          "name": "newVotingPeriod",
          "type": "uint256"
        }
      ],
      "name": "setVotingPeriod",
      "outputs": [],
      "stateMutability": "nonpayable",
      "type": "function"
    },
    {
      "inputs": [
        {
          "internalType": "uint256",
          "name": "proposalId",
          "type": "uint256"
        }
      ],
      "name": "state",
      "outputs": [
        {
          "internalType": "enum IGovernor.ProposalState",
          "name": "",
          "type": "uint8"
        }
      ],
      "stateMutability": "view",
      "type": "function"
    },
    {
      "inputs": [
        {
          "internalType": "bytes4",
          "name": "interfaceId",
          "type": "bytes4"
        }
      ],
      "name": "supportsInterface",
      "outputs": [
        {
          "internalType": "bool",
          "name": "",
          "type": "bool"
        }
      ],
      "stateMutability": "view",
      "type": "function"
    },
    {
      "inputs": [],
      "name": "timelock",
      "outputs": [
        {
          "internalType": "address",
          "name": "",
          "type": "address"
        }
      ],
      "stateMutability": "view",
      "type": "function"
    },
    {
      "inputs": [],
      "name": "token",
      "outputs": [
        {
          "internalType": "contract IVotes",
          "name": "",
          "type": "address"
        }
      ],
      "stateMutability": "view",
      "type": "function"
    },
    {
      "inputs": [
        {
          "internalType": "uint256",
          "name": "newQuorumNumerator",
          "type": "uint256"
        }
      ],
      "name": "updateQuorumNumerator",
      "outputs": [],
      "stateMutability": "nonpayable",
      "type": "function"
    },
    {
      "inputs": [
        {
          "internalType": "contract TimelockController",
          "name": "newTimelock",
          "type": "address"
        }
      ],
      "name": "updateTimelock",
      "outputs": [],
      "stateMutability": "nonpayable",
      "type": "function"
    },
    {
      "inputs": [],
      "name": "version",
      "outputs": [
        {
          "internalType": "string",
          "name": "",
          "type": "string"
        }
      ],
      "stateMutability": "view",
      "type": "function"
    },
    {
      "inputs": [],
      "name": "votingDelay",
      "outputs": [
        {
          "internalType": "uint256",
          "name": "",
          "type": "uint256"
        }
      ],
      "stateMutability": "view",
      "type": "function"
    },
    {
      "inputs": [],
      "name": "votingPeriod",
      "outputs": [
        {
          "internalType": "uint256",
          "name": "",
          "type": "uint256"
        }
      ],
      "stateMutability": "view",
      "type": "function"
    },
    {
      "stateMutability": "payable",
      "type": "receive"
    }
  ],
  "bytecode": "0x6101606040523480156200001257600080fd5b5060405162003cde38038062003cde8339810160408190526200003591620004a1565b8481878686866040518060400160405280600881526020016723b7bb32b93737b960c11b815250806200006d6200016b60201b60201c565b815160208084019190912082518383012060e08290526101008190524660a0818152604080517f8b73c3c69bb8fe3d512ecc4cf759cc79239f7b179b0ffacaa9a75d522b39400f81880181905281830187905260608201869052608082019490945230818401528151808203909301835260c00190528051940193909320919290916080523060c0526101205250508251620001139250600091506020840190620003e2565b506200012190508362000186565b6200012c82620001c7565b62000137816200026e565b5050506001600160a01b0316610140526200015281620002af565b506200015e8162000379565b5050505050505062000540565b6040805180820190915260018152603160f81b602082015290565b60045460408051918252602082018390527fc565b045403dc03c2eea82b81a0465edad9e2e7fc4d97e11421c209da93d7a93910160405180910390a1600455565b600081116200022d5760405162461bcd60e51b815260206004820152602760248201527f476f7665726e6f7253657474696e67733a20766f74696e6720706572696f6420604482015266746f6f206c6f7760c81b60648201526084015b60405180910390fd5b60055460408051918252602082018390527f7e3f7f0708a84de9203036abaa450dccc85ad5ff52f78c170f3edb55cf5e8828910160405180910390a1600555565b60065460408051918252602082018390527fccb45da8d5717e6c4544694297c4ba5cf151d455c9bb0ed4fc7a38411bc05461910160405180910390a1600655565b6064811115620003345760405162461bcd60e51b815260206004820152604360248201527f476f7665726e6f72566f74657351756f72756d4672616374696f6e3a2071756f60448201527f72756d4e756d657261746f72206f7665722071756f72756d44656e6f6d696e616064820152623a37b960e91b608482015260a40162000224565b600880549082905560408051828152602081018490527f0553476bf02ef2726e8ce5ced78d63e26e602e4a2257b1f559418e24b4633997910160405180910390a15050565b600954604080516001600160a01b03928316815291831660208301527f08f74ea46ef7894f65eabfb5e6e695de773a000b47c529ab559178069b226401910160405180910390a1600980546001600160a01b0319166001600160a01b0392909216919091179055565b828054620003f09062000504565b90600052602060002090601f0160209004810192826200041457600085556200045f565b82601f106200042f57805160ff19168380011785556200045f565b828001600101855582156200045f579182015b828111156200045f57825182559160200191906001019062000442565b506200046d92915062000471565b5090565b5b808211156200046d576000815560010162000472565b6001600160a01b03811681146200049e57600080fd5b50565b60008060008060008060c08789031215620004bb57600080fd5b8651620004c88162000488565b6020880151909650620004db8162000488565b6040880151606089015160808a015160a0909a0151989b929a5090989097909650945092505050565b600181811c908216806200051957607f821691505b6020821081036200053a57634e487b7160e01b600052602260045260246000fd5b50919050565b60805160a05160c05160e051610100516101205161014051613735620005a96000396000818161084b01528181611c280152611e4401526000611fc00152600061200f01526000611fea01526000611f4301526000611f6d01526000611f9701526137356000f3fe60806040526004361061023f5760003560e01c80637d5e81e21161012e578063c59057e4116100ab578063eb9019d41161006f578063eb9019d4146107ad578063ece40cc1146107cd578063f23a6e61146107ed578063f8ce560a14610819578063fc0c546a1461083957600080fd5b8063c59057e4146106c1578063d33219b4146106e1578063dd4e2ba514610713578063deaaa7cc14610759578063ea0217cf1461078d57600080fd5b8063ab58fb8e116100f2578063ab58fb8e14610620578063b58131b014610640578063bc197c8114610655578063c01f9e3714610681578063c28bc2fa146106a157600080fd5b80637d5e81e21461059757806397c3d334146105b75780639a802a6d146105cb578063a7713a70146105eb578063a890c9101461060057600080fd5b80633932abb1116101bc57806354fd4d501161018057806354fd4d50146104ed57806356781388146105175780635f398a141461053757806370b0f660146105575780637b3c71d31461057757600080fd5b80633932abb1146103ec5780633bccf4fd146104015780633e4f49e614610421578063438596321461044e578063544ffc9c1461049857600080fd5b8063150b7a0211610203578063150b7a0214610321578063160cbed7146103655780632656227d146103855780632d63f693146103985780632fe3e261146103b857600080fd5b806301ffc9a71461026757806302a251a31461029c57806303420181146102bf57806306f3f9e6146102df57806306fdde03146102ff57600080fd5b36610262573061024d61086d565b6001600160a01b03161461026057600080fd5b005b600080fd5b34801561027357600080fd5b5061028761028236600461283b565b610886565b60405190151581526020015b60405180910390f35b3480156102a857600080fd5b506102b1610897565b604051908152602001610293565b3480156102cb57600080fd5b506102b16102da366004612980565b6108a2565b3480156102eb57600080fd5b506102606102fa366004612a26565b61099a565b34801561030b57600080fd5b50610314610a2d565b6040516102939190612a9b565b34801561032d57600080fd5b5061034c61033c366004612ac3565b630a85bd0160e11b949350505050565b6040516001600160e01b03199091168152602001610293565b34801561037157600080fd5b506102b1610380366004612c9f565b610abf565b6102b1610393366004612c9f565b610cbf565b3480156103a457600080fd5b506102b16103b3366004612a26565b610dac565b3480156103c457600080fd5b506102b17fb3b3f3b703cd84ce352197dcff232b1b5d3cfb2025ce47cf04742d0651f1af8881565b3480156103f857600080fd5b506102b1610de3565b34801561040d57600080fd5b506102b161041c366004612d2e565b610dee565b34801561042d57600080fd5b5061044161043c366004612a26565b610e64565b6040516102939190612d92565b34801561045a57600080fd5b50610287610469366004612dba565b60008281526007602090815260408083206001600160a01b038516845260030190915290205460ff1692915050565b3480156104a457600080fd5b506104d26104b3366004612a26565b6000908152600760205260409020805460018201546002909201549092565b60408051938452602084019290925290820152606001610293565b3480156104f957600080fd5b506040805180820190915260018152603160f81b6020820152610314565b34801561052357600080fd5b506102b1610532366004612dea565b610e6f565b34801561054357600080fd5b506102b1610552366004612e16565b610e98565b34801561056357600080fd5b50610260610572366004612a26565b610ee2565b34801561058357600080fd5b506102b1610592366004612e99565b610f69565b3480156105a357600080fd5b506102b16105b2366004612ef2565b610fbb565b3480156105c357600080fd5b5060646102b1565b3480156105d757600080fd5b506102b16105e6366004612fa6565b610fd2565b3480156105f757600080fd5b506008546102b1565b34801561060c57600080fd5b5061026061061b366004612ffe565b610fe9565b34801561062c57600080fd5b506102b161063b366004612a26565b611070565b34801561064c57600080fd5b506102b161110a565b34801561066157600080fd5b5061034c61067036600461301b565b63bc197c8160e01b95945050505050565b34801561068d57600080fd5b506102b161069c366004612a26565b611115565b3480156106ad57600080fd5b506102606106bc3660046130ae565b611144565b3480156106cd57600080fd5b506102b16106dc366004612c9f565b61120b565b3480156106ed57600080fd5b506009546001600160a01b03165b6040516001600160a01b039091168152602001610293565b34801561071f57600080fd5b506040805180820190915260208082527f737570706f72743d627261766f2671756f72756d3d666f722c6162737461696e90820152610314565b34801561076557600080fd5b506102b17f150214d74d59b7d1e90c73fc22ef3d991dd0a76b046543d4d80ab92d2a50328f81565b34801561079957600080fd5b506102606107a8366004612a26565b611245565b3480156107b957600080fd5b506102b16107c83660046130f1565b6112cc565b3480156107d957600080fd5b506102606107e8366004612a26565b6112d8565b3480156107f957600080fd5b5061034c61080836600461311d565b63f23a6e6160e01b95945050505050565b34801561082557600080fd5b506102b1610834366004612a26565b61135f565b34801561084557600080fd5b506106fb7f000000000000000000000000000000000000000000000000000000000000000081565b60006108816009546001600160a01b031690565b905090565b60006108918261136a565b92915050565b600061088160055490565b60008061094661093e7fb3b3f3b703cd84ce352197dcff232b1b5d3cfb2025ce47cf04742d0651f1af888c8c8c8c6040516108de929190613185565b60405180910390208b80519060200120604051602001610923959493929190948552602085019390935260ff9190911660408401526060830152608082015260a00190565b6040516020818303038152906040528051906020012061138f565b8686866113dd565b905061098c8a828b8b8b8080601f0160208091040260200160405190810160405280939291908181526020018383808284376000920191909152508d92506113fb915050565b9a9950505050505050505050565b6109a261086d565b6001600160a01b0316336001600160a01b0316146109db5760405162461bcd60e51b81526004016109d290613195565b60405180910390fd5b306109e461086d565b6001600160a01b031614610a215760008036604051610a04929190613185565b604051809103902090505b80610a1a6002611560565b03610a0f57505b610a2a816115df565b50565b606060008054610a3c906131cc565b80601f0160208091040260200160405190810160405280929190818152602001828054610a68906131cc565b8015610ab55780601f10610a8a57610100808354040283529160200191610ab5565b820191906000526020600020905b815481529060010190602001808311610a9857829003601f168201915b5050505050905090565b600080610ace8686868661120b565b90506004610adb82610e64565b6007811115610aec57610aec612d7c565b14610b095760405162461bcd60e51b81526004016109d290613206565b6009546040805163793d064960e11b815290516000926001600160a01b03169163f27a0c929160048083019260209291908290030181865afa158015610b53573d6000803e3d6000fd5b505050506040513d601f19601f82011682018060405250810190610b779190613247565b60095460405163b1c5f42760e01b81529192506001600160a01b03169063b1c5f42790610bb1908a908a908a906000908b90600401613329565b602060405180830381865afa158015610bce573d6000803e3d6000fd5b505050506040513d601f19601f82011682018060405250810190610bf29190613247565b6000838152600a60205260408082209290925560095491516308f2a0bb60e41b81526001600160a01b0390921691638f2a0bb091610c3d918b918b918b91908b908990600401613377565b600060405180830381600087803b158015610c5757600080fd5b505af1158015610c6b573d6000803e3d6000fd5b505050507f9a2e42fd6722813d69113e7d0079d3d940171428df7373df9c7f7617cfda2892828242610c9d91906133e5565b6040805192835260208301919091520160405180910390a15095945050505050565b600080610cce8686868661120b565b90506000610cdb82610e64565b90506004816007811115610cf157610cf1612d7c565b1480610d0e57506005816007811115610d0c57610d0c612d7c565b145b610d2a5760405162461bcd60e51b81526004016109d290613206565b600082815260016020818152604092839020600201805460ff191690921790915590518381527f712ae1383f79ac853f8d882153778e0260ef8f03b504e2866e0593e04d2b291f910160405180910390a1610d8882888888886116a7565b610d958288888888611748565b610da28288888888611755565b5095945050505050565b60008181526001602090815260408083208151928301909152546001600160401b0316908190525b6001600160401b031692915050565b600061088160045490565b604080517f150214d74d59b7d1e90c73fc22ef3d991dd0a76b046543d4d80ab92d2a50328f602082015290810186905260ff851660608201526000908190610e3c9061093e90608001610923565b9050610e598782886040518060200160405280600081525061178e565b979650505050505050565b6000610891826117b1565b600080339050610e908482856040518060200160405280600081525061178e565b949350505050565b600080339050610e5987828888888080601f0160208091040260200160405190810160405280939291908181526020018383808284376000920191909152508a92506113fb915050565b610eea61086d565b6001600160a01b0316336001600160a01b031614610f1a5760405162461bcd60e51b81526004016109d290613195565b30610f2361086d565b6001600160a01b031614610f605760008036604051610f43929190613185565b604051809103902090505b80610f596002611560565b03610f4e57505b610a2a816118fb565b600080339050610fb186828787878080601f01602080910402602001604051908101604052809392919081815260200183838082843760009201919091525061178e92505050565b9695505050505050565b6000610fc98585858561193c565b95945050505050565b6000610fdf848484611bff565b90505b9392505050565b610ff161086d565b6001600160a01b0316336001600160a01b0316146110215760405162461bcd60e51b81526004016109d290613195565b3061102a61086d565b6001600160a01b031614611067576000803660405161104a929190613185565b604051809103902090505b806110606002611560565b0361105557505b610a2a81611c95565b6009546000828152600a602052604080822054905163d45c443560e01b81526004810191909152909182916001600160a01b039091169063d45c443590602401602060405180830381865afa1580156110cd573d6000803e3d6000fd5b505050506040513d601f19601f820116820180604052508101906110f19190613247565b9050806001146111015780610fe2565b60009392505050565b600061088160065490565b60008181526001602081815260408084208151928301909152909101546001600160401b031690819052610dd4565b61114c61086d565b6001600160a01b0316336001600160a01b03161461117c5760405162461bcd60e51b81526004016109d290613195565b3061118561086d565b6001600160a01b0316146111c257600080366040516111a5929190613185565b604051809103902090505b806111bb6002611560565b036111b057505b6112048483838080601f016020809104026020016040519081016040528093929190818152602001838380828437600092019190915250889250611cfe915050565b5050505050565b60008484848460405160200161122494939291906133fd565b60408051601f19818403018152919052805160209091012095945050505050565b61124d61086d565b6001600160a01b0316336001600160a01b03161461127d5760405162461bcd60e51b81526004016109d290613195565b3061128661086d565b6001600160a01b0316146112c357600080366040516112a6929190613185565b604051809103902090505b806112bc6002611560565b036112b157505b610a2a81611d24565b6000610fe28383611dc5565b6112e061086d565b6001600160a01b0316336001600160a01b0316146113105760405162461bcd60e51b81526004016109d290613195565b3061131961086d565b6001600160a01b0316146113565760008036604051611339929190613185565b604051809103902090505b8061134f6002611560565b0361134457505b610a2a81611de6565b600061089182611e27565b60006001600160e01b03198216636e665ced60e01b1480610891575061089182611ecb565b600061089161139c611f36565b8360405161190160f01b6020820152602281018390526042810182905260009060620160405160208183030381529060405280519060200120905092915050565b60008060006113ee8787878761205d565b91509150610da28161214a565b600085815260016020819052604082209061141588610e64565b600781111561142657611426612d7c565b1461147f5760405162461bcd60e51b815260206004820152602360248201527f476f7665726e6f723a20766f7465206e6f742063757272656e746c792061637460448201526269766560e81b60648201526084016109d2565b604080516020810190915281546001600160401b0316908190526000906114a890889086611bff565b90506114b78888888488612300565b835160000361150c57866001600160a01b03167fb8e138887d0aa13bab447e82de9d5c1777041ecd21ca36ba824ff1e6c07ddda4898884896040516114ff9493929190613448565b60405180910390a2610e59565b866001600160a01b03167fe2babfbac5889a709b63bb7f598b324e08bc5a4fb9ec647fb3cbc9ec07eb8712898884898960405161154d959493929190613470565b60405180910390a2979650505050505050565b600061157b8254600f81810b600160801b909204900b131590565b1561159957604051631ed9509560e11b815260040160405180910390fd5b508054600f0b6000818152600180840160205260408220805492905583546fffffffffffffffffffffffffffffffff191692016001600160801b03169190911790915590565b60648111156116625760405162461bcd60e51b815260206004820152604360248201527f476f7665726e6f72566f74657351756f72756d4672616374696f6e3a2071756f60448201527f72756d4e756d657261746f72206f7665722071756f72756d44656e6f6d696e616064820152623a37b960e91b608482015260a4016109d2565b600880549082905560408051828152602081018490527f0553476bf02ef2726e8ce5ced78d63e26e602e4a2257b1f559418e24b4633997910160405180910390a15050565b306116b061086d565b6001600160a01b0316146112045760005b845181101561174057306001600160a01b03168582815181106116e6576116e66134b6565b60200260200101516001600160a01b03160361173057611730838281518110611711576117116134b6565b602002602001015180519060200120600261247a90919063ffffffff16565b611739816134cc565b90506116c1565b505050505050565b61120485858585856124b6565b3061175e61086d565b6001600160a01b03161461120457600254600f81810b600160801b909204900b1315611204576000600255611204565b6000610fc9858585856117ac60408051602081019091526000815290565b6113fb565b6000806117bd8361252a565b905060048160078111156117d3576117d3612d7c565b146117de5792915050565b6000838152600a6020526040902054806117f9575092915050565b600954604051632ab0f52960e01b8152600481018390526001600160a01b0390911690632ab0f52990602401602060405180830381865afa158015611842573d6000803e3d6000fd5b505050506040513d601f19601f8201168201806040525081019061186691906134e5565b15611875575060079392505050565b600954604051632c258a9f60e11b8152600481018390526001600160a01b039091169063584b153e90602401602060405180830381865afa1580156118be573d6000803e3d6000fd5b505050506040513d601f19601f820116820180604052508101906118e291906134e5565b156118f1575060059392505050565b5060029392505050565b60045460408051918252602082018390527fc565b045403dc03c2eea82b81a0465edad9e2e7fc4d97e11421c209da93d7a93910160405180910390a1600455565b600061194661110a565b611955336107c8600143613507565b10156119bd5760405162461bcd60e51b815260206004820152603160248201527f476f7665726e6f723a2070726f706f73657220766f7465732062656c6f7720706044820152701c9bdc1bdcd85b081d1a1c995cda1bdb19607a1b60648201526084016109d2565b60006119d2868686868051906020012061120b565b905084518651146119f55760405162461bcd60e51b81526004016109d29061351e565b8351865114611a165760405162461bcd60e51b81526004016109d29061351e565b6000865111611a675760405162461bcd60e51b815260206004820152601860248201527f476f7665726e6f723a20656d7074792070726f706f73616c000000000000000060448201526064016109d2565b600081815260016020908152604091829020825191820190925281546001600160401b03169081905215611ae75760405162461bcd60e51b815260206004820152602160248201527f476f7665726e6f723a2070726f706f73616c20616c72656164792065786973746044820152607360f81b60648201526084016109d2565b6000611af9611af4610de3565b612639565b611b0243612639565b611b0c919061355f565b90506000611b1b611af4610897565b611b25908361355f565b835467ffffffffffffffff19166001600160401b038416178455905060018301805467ffffffffffffffff19166001600160401b0383161790557f7d84a6263ae0d98d3329bd7b46bb4e8d6f98cd35a7adb45c274c8b7fd5ebd5e084338b8b8d516001600160401b03811115611b9d57611b9d6128c3565b604051908082528060200260200182016040528015611bd057816020015b6060815260200190600190039081611bbb5790505b508c88888e604051611bea9998979695949392919061358a565b60405180910390a15091979650505050505050565b604051630748d63560e31b81526001600160a01b038481166004830152602482018490526000917f000000000000000000000000000000000000000000000000000000000000000090911690633a46b1a890604401602060405180830381865afa158015611c71573d6000803e3d6000fd5b505050506040513d601f19601f82011682018060405250810190610fdf9190613247565b600954604080516001600160a01b03928316815291831660208301527f08f74ea46ef7894f65eabfb5e6e695de773a000b47c529ab559178069b226401910160405180910390a1600980546001600160a01b0319166001600160a01b0392909216919091179055565b6060610fdf8484846040518060600160405280602981526020016136d7602991396126a5565b60008111611d845760405162461bcd60e51b815260206004820152602760248201527f476f7665726e6f7253657474696e67733a20766f74696e6720706572696f6420604482015266746f6f206c6f7760c81b60648201526084016109d2565b60055460408051918252602082018390527f7e3f7f0708a84de9203036abaa450dccc85ad5ff52f78c170f3edb55cf5e8828910160405180910390a1600555565b6000610fe28383611de160408051602081019091526000815290565b611bff565b60065460408051918252602082018390527fccb45da8d5717e6c4544694297c4ba5cf151d455c9bb0ed4fc7a38411bc05461910160405180910390a1600655565b60006064600854604051632394e7a360e21b8152600481018590527f00000000000000000000000000000000000000000000000000000000000000006001600160a01b031690638e539e8c90602401602060405180830381865afa158015611e93573d6000803e3d6000fd5b505050506040513d601f19601f82011682018060405250810190611eb79190613247565b611ec19190613679565b6108919190613698565b60006001600160e01b0319821663bf26d89760e01b1480611efc57506001600160e01b031982166379dd796f60e01b145b80611f1757506001600160e01b03198216630271189760e51b145b8061089157506301ffc9a760e01b6001600160e01b0319831614610891565b6000306001600160a01b037f000000000000000000000000000000000000000000000000000000000000000016148015611f8f57507f000000000000000000000000000000000000000000000000000000000000000046145b15611fb957507f000000000000000000000000000000000000000000000000000000000000000090565b50604080517f00000000000000000000000000000000000000000000000000000000000000006020808301919091527f0000000000000000000000000000000000000000000000000000000000000000828401527f000000000000000000000000000000000000000000000000000000000000000060608301524660808301523060a0808401919091528351808403909101815260c0909201909252805191012090565b6000807f7fffffffffffffffffffffffffffffff5d576e7357a4501ddfe92f46681b20a08311156120945750600090506003612141565b8460ff16601b141580156120ac57508460ff16601c14155b156120bd5750600090506004612141565b6040805160008082526020820180845289905260ff881692820192909252606081018690526080810185905260019060a0016020604051602081039080840390855afa158015612111573d6000803e3d6000fd5b5050604051601f1901519150506001600160a01b03811661213a57600060019250925050612141565b9150600090505b94509492505050565b600081600481111561215e5761215e612d7c565b036121665750565b600181600481111561217a5761217a612d7c565b036121c75760405162461bcd60e51b815260206004820152601860248201527f45434453413a20696e76616c6964207369676e6174757265000000000000000060448201526064016109d2565b60028160048111156121db576121db612d7c565b036122285760405162461bcd60e51b815260206004820152601f60248201527f45434453413a20696e76616c6964207369676e6174757265206c656e6774680060448201526064016109d2565b600381600481111561223c5761223c612d7c565b036122945760405162461bcd60e51b815260206004820152602260248201527f45434453413a20696e76616c6964207369676e6174757265202773272076616c604482015261756560f01b60648201526084016109d2565b60048160048111156122a8576122a8612d7c565b03610a2a5760405162461bcd60e51b815260206004820152602260248201527f45434453413a20696e76616c6964207369676e6174757265202776272076616c604482015261756560f01b60648201526084016109d2565b60008581526007602090815260408083206001600160a01b0388168452600381019092529091205460ff16156123885760405162461bcd60e51b815260206004820152602760248201527f476f7665726e6f72566f74696e6753696d706c653a20766f746520616c726561604482015266191e4818d85cdd60ca1b60648201526084016109d2565b6001600160a01b03851660009081526003820160205260409020805460ff1916600117905560ff84166123d457828160000160008282546123c991906133e5565b909155506117409050565b60001960ff8516016123f457828160010160008282546123c991906133e5565b60011960ff85160161241457828160020160008282546123c991906133e5565b60405162461bcd60e51b815260206004820152603560248201527f476f7665726e6f72566f74696e6753696d706c653a20696e76616c69642076616044820152746c756520666f7220656e756d20566f74655479706560581b60648201526084016109d2565b8154600160801b90819004600f0b6000818152600180860160205260409091209390935583546001600160801b03908116939091011602179055565b60095460405163e38335e560e01b81526001600160a01b039091169063e38335e59034906124f1908890889088906000908990600401613329565b6000604051808303818588803b15801561250a57600080fd5b505af115801561251e573d6000803e3d6000fd5b50505050505050505050565b6000818152600160205260408120600281015460ff161561254e5750600792915050565b6002810154610100900460ff16156125695750600292915050565b600061257484610dac565b9050806000036125c65760405162461bcd60e51b815260206004820152601d60248201527f476f7665726e6f723a20756e6b6e6f776e2070726f706f73616c20696400000060448201526064016109d2565b4381106125d7575060009392505050565b60006125e285611115565b90504381106125f657506001949350505050565b6125ff856127cb565b801561261e575060008581526007602052604090208054600190910154115b1561262e57506004949350505050565b506003949350505050565b60006001600160401b038211156126a15760405162461bcd60e51b815260206004820152602660248201527f53616665436173743a2076616c756520646f65736e27742066697420696e203660448201526534206269747360d01b60648201526084016109d2565b5090565b6060824710156127065760405162461bcd60e51b815260206004820152602660248201527f416464726573733a20696e73756666696369656e742062616c616e636520666f6044820152651c8818d85b1b60d21b60648201526084016109d2565b6001600160a01b0385163b61275d5760405162461bcd60e51b815260206004820152601d60248201527f416464726573733a2063616c6c20746f206e6f6e2d636f6e747261637400000060448201526064016109d2565b600080866001600160a01b0316858760405161277991906136ba565b60006040518083038185875af1925050503d80600081146127b6576040519150601f19603f3d011682016040523d82523d6000602084013e6127bb565b606091505b5091509150610e59828286612802565b6000818152600760205260408120600281015460018201546127ed91906133e5565b6127f961083485610dac565b11159392505050565b60608315612811575081610fe2565b8251156128215782518084602001fd5b8160405162461bcd60e51b81526004016109d29190612a9b565b60006020828403121561284d57600080fd5b81356001600160e01b031981168114610fe257600080fd5b803560ff8116811461287657600080fd5b919050565b60008083601f84011261288d57600080fd5b5081356001600160401b038111156128a457600080fd5b6020830191508360208285010111156128bc57600080fd5b9250929050565b634e487b7160e01b600052604160045260246000fd5b604051601f8201601f191681016001600160401b0381118282101715612901576129016128c3565b604052919050565b60006001600160401b03831115612922576129226128c3565b612935601f8401601f19166020016128d9565b905082815283838301111561294957600080fd5b828260208301376000602084830101529392505050565b600082601f83011261297157600080fd5b610fe283833560208501612909565b60008060008060008060008060e0898b03121561299c57600080fd5b883597506129ac60208a01612865565b965060408901356001600160401b03808211156129c857600080fd5b6129d48c838d0161287b565b909850965060608b01359150808211156129ed57600080fd5b506129fa8b828c01612960565b945050612a0960808a01612865565b925060a0890135915060c089013590509295985092959890939650565b600060208284031215612a3857600080fd5b5035919050565b60005b83811015612a5a578181015183820152602001612a42565b83811115612a69576000848401525b50505050565b60008151808452612a87816020860160208601612a3f565b601f01601f19169290920160200192915050565b602081526000610fe26020830184612a6f565b6001600160a01b0381168114610a2a57600080fd5b60008060008060808587031215612ad957600080fd5b8435612ae481612aae565b93506020850135612af481612aae565b92506040850135915060608501356001600160401b03811115612b1657600080fd5b612b2287828801612960565b91505092959194509250565b60006001600160401b03821115612b4757612b476128c3565b5060051b60200190565b600082601f830112612b6257600080fd5b81356020612b77612b7283612b2e565b6128d9565b82815260059290921b84018101918181019086841115612b9657600080fd5b8286015b84811015612bba578035612bad81612aae565b8352918301918301612b9a565b509695505050505050565b600082601f830112612bd657600080fd5b81356020612be6612b7283612b2e565b82815260059290921b84018101918181019086841115612c0557600080fd5b8286015b84811015612bba5780358352918301918301612c09565b600082601f830112612c3157600080fd5b81356020612c41612b7283612b2e565b82815260059290921b84018101918181019086841115612c6057600080fd5b8286015b84811015612bba5780356001600160401b03811115612c835760008081fd5b612c918986838b0101612960565b845250918301918301612c64565b60008060008060808587031215612cb557600080fd5b84356001600160401b0380821115612ccc57600080fd5b612cd888838901612b51565b95506020870135915080821115612cee57600080fd5b612cfa88838901612bc5565b94506040870135915080821115612d1057600080fd5b50612d1d87828801612c20565b949793965093946060013593505050565b600080600080600060a08688031215612d4657600080fd5b85359450612d5660208701612865565b9350612d6460408701612865565b94979396509394606081013594506080013592915050565b634e487b7160e01b600052602160045260246000fd5b6020810160088310612db457634e487b7160e01b600052602160045260246000fd5b91905290565b60008060408385031215612dcd57600080fd5b823591506020830135612ddf81612aae565b809150509250929050565b60008060408385031215612dfd57600080fd5b82359150612e0d60208401612865565b90509250929050565b600080600080600060808688031215612e2e57600080fd5b85359450612e3e60208701612865565b935060408601356001600160401b0380821115612e5a57600080fd5b612e6689838a0161287b565b90955093506060880135915080821115612e7f57600080fd5b50612e8c88828901612960565b9150509295509295909350565b60008060008060608587031215612eaf57600080fd5b84359350612ebf60208601612865565b925060408501356001600160401b03811115612eda57600080fd5b612ee68782880161287b565b95989497509550505050565b60008060008060808587031215612f0857600080fd5b84356001600160401b0380821115612f1f57600080fd5b612f2b88838901612b51565b95506020870135915080821115612f4157600080fd5b612f4d88838901612bc5565b94506040870135915080821115612f6357600080fd5b612f6f88838901612c20565b93506060870135915080821115612f8557600080fd5b508501601f81018713612f9757600080fd5b612b2287823560208401612909565b600080600060608486031215612fbb57600080fd5b8335612fc681612aae565b92506020840135915060408401356001600160401b03811115612fe857600080fd5b612ff486828701612960565b9150509250925092565b60006020828403121561301057600080fd5b8135610fe281612aae565b600080600080600060a0868803121561303357600080fd5b853561303e81612aae565b9450602086013561304e81612aae565b935060408601356001600160401b038082111561306a57600080fd5b61307689838a01612bc5565b9450606088013591508082111561308c57600080fd5b61309889838a01612bc5565b93506080880135915080821115612e7f57600080fd5b600080600080606085870312156130c457600080fd5b84356130cf81612aae565b93506020850135925060408501356001600160401b03811115612eda57600080fd5b6000806040838503121561310457600080fd5b823561310f81612aae565b946020939093013593505050565b600080600080600060a0868803121561313557600080fd5b853561314081612aae565b9450602086013561315081612aae565b9350604086013592506060860135915060808601356001600160401b0381111561317957600080fd5b612e8c88828901612960565b8183823760009101908152919050565b60208082526018908201527f476f7665726e6f723a206f6e6c79476f7665726e616e63650000000000000000604082015260600190565b600181811c908216806131e057607f821691505b60208210810361320057634e487b7160e01b600052602260045260246000fd5b50919050565b60208082526021908201527f476f7665726e6f723a2070726f706f73616c206e6f74207375636365737366756040820152601b60fa1b606082015260800190565b60006020828403121561325957600080fd5b5051919050565b600081518084526020808501945080840160005b838110156132995781516001600160a01b031687529582019590820190600101613274565b509495945050505050565b600081518084526020808501945080840160005b83811015613299578151875295820195908201906001016132b8565b600081518084526020808501808196508360051b8101915082860160005b8581101561331c57828403895261330a848351612a6f565b988501989350908401906001016132f2565b5091979650505050505050565b60a08152600061333c60a0830188613260565b828103602084015261334e81886132a4565b9050828103604084015261336281876132d4565b60608401959095525050608001529392505050565b60c08152600061338a60c0830189613260565b828103602084015261339c81896132a4565b905082810360408401526133b081886132d4565b60608401969096525050608081019290925260a0909101529392505050565b634e487b7160e01b600052601160045260246000fd5b600082198211156133f8576133f86133cf565b500190565b6080815260006134106080830187613260565b828103602084015261342281876132a4565b9050828103604084015261343681866132d4565b91505082606083015295945050505050565b84815260ff84166020820152826040820152608060608201526000610fb16080830184612a6f565b85815260ff8516602082015283604082015260a06060820152600061349860a0830185612a6f565b82810360808401526134aa8185612a6f565b98975050505050505050565b634e487b7160e01b600052603260045260246000fd5b6000600182016134de576134de6133cf565b5060010190565b6000602082840312156134f757600080fd5b81518015158114610fe257600080fd5b600082821015613519576135196133cf565b500390565b60208082526021908201527f476f7665726e6f723a20696e76616c69642070726f706f73616c206c656e67746040820152600d60fb1b606082015260800190565b60006001600160401b03808316818516808303821115613581576135816133cf565b01949350505050565b60006101208b8352602060018060a01b038c16818501528160408501526135b38285018c613260565b915083820360608501526135c7828b6132a4565b915083820360808501528189518084528284019150828160051b850101838c0160005b8381101561361857601f19878403018552613606838351612a6f565b948601949250908501906001016135ea565b505086810360a088015261362c818c6132d4565b94505050505061364760c08401876001600160401b03169052565b6001600160401b03851660e08401528281036101008401526136698185612a6f565b9c9b505050505050505050505050565b6000816000190483118215151615613693576136936133cf565b500290565b6000826136b557634e487b7160e01b600052601260045260246000fd5b500490565b600082516136cc818460208701612a3f565b919091019291505056fe416464726573733a206c6f772d6c6576656c2063616c6c20776974682076616c7565206661696c6564a264697066735822122092edff22c0060f35a1511474f2dafe11293235093992752605c856d63cfedabf64736f6c634300080d0033",
  "linkReferences": {},
  "deployedLinkReferences": {}
}