{
  "_format": "hh-sol-artifact-1",
  "contractName": "UserStoryTreasury",
  "sourceName": "contracts/UserStoryTreasury.sol",
  "abi": [
    {
      "inputs": [
        {
          "internalType": "string",
          "name": "sentDescription",
          "type": "string"
        },
        {
          "internalType": "uint256",
          "name": "sentFunctionalComplexity",
          "type": "uint256"
        },
        {
          "internalType": "uint256",
          "name": "sentEffortEstimation",
          "type": "uint256"
        }
      ],
      "name": "InvalidUserStory",
      "type": "error"
    },
    {
      "anonymous": false,
      "inputs": [
        {
          "indexed": true,
          "internalType": "address",
          "name": "previousOwner",
          "type": "address"
        },
        {
          "indexed": true,
          "internalType": "address",
          "name": "newOwner",
          "type": "address"
        }
      ],
      "name": "OwnershipTransferred",
      "type": "event"
    },
    {
      "anonymous": false,
      "inputs": [
        {
          "indexed": true,
          "internalType": "address",
          "name": "creator",
          "type": "address"
        },
        {
          "indexed": false,
          "internalType": "uint256",
          "name": "userStoryNumber",
          "type": "uint256"
        },
        {
          "indexed": false,
          "internalType": "string",
          "name": "description",
          "type": "string"
        },
        {
          "indexed": false,
          "internalType": "uint256",
          "name": "functionalComplexity",
          "type": "uint256"
        },
        {
          "indexed": false,
          "internalType": "uint256",
          "name": "effortEstimation",
          "type": "uint256"
        },
        {
          "indexed": false,
          "internalType": "uint256",
          "name": "timestamp",
          "type": "uint256"
        },
        {
          "indexed": false,
          "internalType": "bool",
          "name": "isDone",
          "type": "bool"
        }
      ],
      "name": "UserStoryCreated",
      "type": "event"
    },
    {
      "inputs": [],
      "name": "owner",
      "outputs": [
        {
          "internalType": "address",
          "name": "",
          "type": "address"
        }
      ],
      "stateMutability": "view",
      "type": "function"
    },
    {
      "inputs": [],
      "name": "renounceOwnership",
      "outputs": [],
      "stateMutability": "nonpayable",
      "type": "function"
    },
    {
      "inputs": [],
      "name": "retrieveAllUserStories",
      "outputs": [
        {
          "components": [
            {
              "internalType": "address",
              "name": "creator",
              "type": "address"
            },
            {
              "internalType": "uint256",
              "name": "userStoryNumber",
              "type": "uint256"
            },
            {
              "internalType": "string",
              "name": "description",
              "type": "string"
            },
            {
              "internalType": "uint256",
              "name": "functionalComplexity",
              "type": "uint256"
            },
            {
              "internalType": "uint256",
              "name": "effortEstimation",
              "type": "uint256"
            },
            {
              "internalType": "uint256",
              "name": "timestamp",
              "type": "uint256"
            },
            {
              "internalType": "bool",
              "name": "isDone",
              "type": "bool"
            }
          ],
          "internalType": "struct UserStoryTreasury.UserStory[]",
          "name": "",
          "type": "tuple[]"
        }
      ],
      "stateMutability": "view",
      "type": "function"
    },
    {
      "inputs": [
        {
          "internalType": "uint256",
          "name": "_userStoryNumber",
          "type": "uint256"
        }
      ],
      "name": "retrieveUserStory",
      "outputs": [
        {
          "components": [
            {
              "internalType": "address",
              "name": "creator",
              "type": "address"
            },
            {
              "internalType": "uint256",
              "name": "userStoryNumber",
              "type": "uint256"
            },
            {
              "internalType": "string",
              "name": "description",
              "type": "string"
            },
            {
              "internalType": "uint256",
              "name": "functionalComplexity",
              "type": "uint256"
            },
            {
              "internalType": "uint256",
              "name": "effortEstimation",
              "type": "uint256"
            },
            {
              "internalType": "uint256",
              "name": "timestamp",
              "type": "uint256"
            },
            {
              "internalType": "bool",
              "name": "isDone",
              "type": "bool"
            }
          ],
          "internalType": "struct UserStoryTreasury.UserStory",
          "name": "",
          "type": "tuple"
        }
      ],
      "stateMutability": "view",
      "type": "function"
    },
    {
      "inputs": [
        {
          "internalType": "string",
          "name": "_description",
          "type": "string"
        },
        {
          "internalType": "uint256",
          "name": "_functionalComplexity",
          "type": "uint256"
        },
        {
          "internalType": "uint256",
          "name": "_effortEstimation",
          "type": "uint256"
        }
      ],
      "name": "storeUserStory",
      "outputs": [],
      "stateMutability": "nonpayable",
      "type": "function"
    },
    {
      "inputs": [
        {
          "internalType": "address",
          "name": "newOwner",
          "type": "address"
        }
      ],
      "name": "transferOwnership",
      "outputs": [],
      "stateMutability": "nonpayable",
      "type": "function"
    },
    {
      "inputs": [
        {
          "internalType": "uint256",
          "name": "",
          "type": "uint256"
        }
      ],
      "name": "userStories",
      "outputs": [
        {
          "internalType": "address",
          "name": "creator",
          "type": "address"
        },
        {
          "internalType": "uint256",
          "name": "userStoryNumber",
          "type": "uint256"
        },
        {
          "internalType": "string",
          "name": "description",
          "type": "string"
        },
        {
          "internalType": "uint256",
          "name": "functionalComplexity",
          "type": "uint256"
        },
        {
          "internalType": "uint256",
          "name": "effortEstimation",
          "type": "uint256"
        },
        {
          "internalType": "uint256",
          "name": "timestamp",
          "type": "uint256"
        },
        {
          "internalType": "bool",
          "name": "isDone",
          "type": "bool"
        }
      ],
      "stateMutability": "view",
      "type": "function"
    }
  ],
  "bytecode": "0x608060405234801561001057600080fd5b5061001a3361001f565b61006f565b600080546001600160a01b038381166001600160a01b0319831681178455604051919092169283917f8be0079c531659141344cd1fd0a4f28419497f9722a3daafe3b4186f6b6457e09190a35050565b610bef8061007e6000396000f3fe608060405234801561001057600080fd5b506004361061007d5760003560e01c80636d230d741161005b5780636d230d74146100d5578063715018a6146100fb5780638da5cb5b14610103578063f2fde38b1461011e57600080fd5b80632e857ae1146100825780635c0d46d914610097578063673e4d4b146100b5575b600080fd5b61009561009036600461084a565b610131565b005b61009f6102db565b6040516100ac91906109c2565b60405180910390f35b6100c86100c3366004610a24565b61041f565b6040516100ac9190610a3d565b6100e86100e3366004610a24565b610595565b6040516100ac9796959493929190610a57565b61009561067a565b6000546040516001600160a01b0390911681526020016100ac565b61009561012c366004610aa6565b6106b0565b6000546001600160a01b031633146101645760405162461bcd60e51b815260040161015b90610acf565b60405180910390fd5b825183901580610172575082155b8061017b575081155b1561019f57838383604051636b4ef4cb60e11b815260040161015b93929190610b04565b60036040518060e00160405280336001600160a01b031681526020016101c460015490565b81526020808201889052604080830188905260608301879052426080840152600060a090930183905284546001808201875595845292829020845160079094020180546001600160a01b0319166001600160a01b03909416939093178355838201519483019490945592820151805192939192610247926002850192019061079b565b50606082015160038201556080820151600482015560a0820151600582015560c0909101516006909101805460ff191691151591909117905560015433907f0e648344cff314f7ba4faef3d5ad364cf3067d2e7e3e213e3badcddd2122e486908686864260006040516102bf96959493929190610b29565b60405180910390a26102d5600180546001019055565b50505050565b60606003805480602002602001604051908101604052809291908181526020016000905b828210156104165760008481526020908190206040805160e0810182526007860290920180546001600160a01b031683526001810154938301939093526002830180549293929184019161035290610b69565b80601f016020809104026020016040519081016040528092919081815260200182805461037e90610b69565b80156103cb5780601f106103a0576101008083540402835291602001916103cb565b820191906000526020600020905b8154815290600101906020018083116103ae57829003601f168201915b50505091835250506003820154602080830191909152600483015460408301526005830154606083015260069092015460ff16151560809091015290825260019290920191016102ff565b50505050905090565b61046a6040518060e0016040528060006001600160a01b0316815260200160008152602001606081526020016000815260200160008152602001600081526020016000151581525090565b6003828154811061047d5761047d610ba3565b90600052602060002090600702016040518060e00160405290816000820160009054906101000a90046001600160a01b03166001600160a01b03166001600160a01b03168152602001600182015481526020016002820180546104df90610b69565b80601f016020809104026020016040519081016040528092919081815260200182805461050b90610b69565b80156105585780601f1061052d57610100808354040283529160200191610558565b820191906000526020600020905b81548152906001019060200180831161053b57829003601f168201915b505050918352505060038201546020820152600482015460408201526005820154606082015260069091015460ff16151560809091015292915050565b600381815481106105a557600080fd5b60009182526020909120600790910201805460018201546002830180546001600160a01b0390931694509092916105db90610b69565b80601f016020809104026020016040519081016040528092919081815260200182805461060790610b69565b80156106545780601f1061062957610100808354040283529160200191610654565b820191906000526020600020905b81548152906001019060200180831161063757829003601f168201915b505050506003830154600484015460058501546006909501549394919390925060ff1687565b6000546001600160a01b031633146106a45760405162461bcd60e51b815260040161015b90610acf565b6106ae600061074b565b565b6000546001600160a01b031633146106da5760405162461bcd60e51b815260040161015b90610acf565b6001600160a01b03811661073f5760405162461bcd60e51b815260206004820152602660248201527f4f776e61626c653a206e6577206f776e657220697320746865207a65726f206160448201526564647265737360d01b606482015260840161015b565b6107488161074b565b50565b600080546001600160a01b038381166001600160a01b0319831681178455604051919092169283917f8be0079c531659141344cd1fd0a4f28419497f9722a3daafe3b4186f6b6457e09190a35050565b8280546107a790610b69565b90600052602060002090601f0160209004810192826107c9576000855561080f565b82601f106107e257805160ff191683800117855561080f565b8280016001018555821561080f579182015b8281111561080f5782518255916020019190600101906107f4565b5061081b92915061081f565b5090565b5b8082111561081b5760008155600101610820565b634e487b7160e01b600052604160045260246000fd5b60008060006060848603121561085f57600080fd5b833567ffffffffffffffff8082111561087757600080fd5b818601915086601f83011261088b57600080fd5b81358181111561089d5761089d610834565b604051601f8201601f19908116603f011681019083821181831017156108c5576108c5610834565b816040528281528960208487010111156108de57600080fd5b82602086016020830137600060208483010152809750505050505060208401359150604084013590509250925092565b6000815180845260005b8181101561093457602081850181015186830182015201610918565b81811115610946576000602083870101525b50601f01601f19169290920160200192915050565b60018060a01b038151168252602081015160208301526000604082015160e0604085015261098c60e085018261090e565b9050606083015160608501526080830151608085015260a083015160a085015260c0830151151560c08501528091505092915050565b6000602080830181845280855180835260408601915060408160051b870101925083870160005b82811015610a1757603f19888603018452610a0585835161095b565b945092850192908501906001016109e9565b5092979650505050505050565b600060208284031215610a3657600080fd5b5035919050565b602081526000610a50602083018461095b565b9392505050565b60018060a01b038816815286602082015260e060408201526000610a7e60e083018861090e565b90508560608301528460808301528360a083015282151560c083015298975050505050505050565b600060208284031215610ab857600080fd5b81356001600160a01b0381168114610a5057600080fd5b6020808252818101527f4f776e61626c653a2063616c6c6572206973206e6f7420746865206f776e6572604082015260600190565b606081526000610b17606083018661090e565b60208301949094525060400152919050565b86815260c060208201526000610b4260c083018861090e565b905085604083015284606083015283608083015282151560a0830152979650505050505050565b600181811c90821680610b7d57607f821691505b602082108103610b9d57634e487b7160e01b600052602260045260246000fd5b50919050565b634e487b7160e01b600052603260045260246000fdfea2646970667358221220fd74898d0dc393acd2cbdc8eb49c011d44dafccdb4da48bd3bae11feb060194864736f6c634300080d0033",
  "linkReferences": {},
  "deployedLinkReferences": {}
}