{
  "_format": "hh-sol-artifact-1",
  "contractName": "UserStoryTreasury",
  "sourceName": "contracts/UserStoryTreasury.sol",
  "abi": [
    {
      "anonymous": false,
      "inputs": [
        {
          "indexed": true,
          "internalType": "address",
          "name": "previousOwner",
          "type": "address"
        },
        {
          "indexed": true,
          "internalType": "address",
          "name": "newOwner",
          "type": "address"
        }
      ],
      "name": "OwnershipTransferred",
      "type": "event"
    },
    {
      "anonymous": false,
      "inputs": [
        {
          "indexed": true,
          "internalType": "address",
          "name": "creator",
          "type": "address"
        },
        {
          "indexed": false,
          "internalType": "uint256",
          "name": "userStoryNumber",
          "type": "uint256"
        },
        {
          "indexed": false,
          "internalType": "string",
          "name": "description",
          "type": "string"
        },
        {
          "indexed": false,
          "internalType": "uint256",
          "name": "functionalComplexity",
          "type": "uint256"
        },
        {
          "indexed": false,
          "internalType": "uint256",
          "name": "effortEstimation",
          "type": "uint256"
        },
        {
          "indexed": false,
          "internalType": "uint256",
          "name": "timestamp",
          "type": "uint256"
        },
        {
          "indexed": false,
          "internalType": "bool",
          "name": "isDone",
          "type": "bool"
        }
      ],
      "name": "UserStoryCreated",
      "type": "event"
    },
    {
      "inputs": [],
      "name": "owner",
      "outputs": [
        {
          "internalType": "address",
          "name": "",
          "type": "address"
        }
      ],
      "stateMutability": "view",
      "type": "function"
    },
    {
      "inputs": [],
      "name": "renounceOwnership",
      "outputs": [],
      "stateMutability": "nonpayable",
      "type": "function"
    },
    {
      "inputs": [],
      "name": "retrieveAllUserStory",
      "outputs": [
        {
          "components": [
            {
              "internalType": "address",
              "name": "creator",
              "type": "address"
            },
            {
              "internalType": "uint256",
              "name": "userStoryNumber",
              "type": "uint256"
            },
            {
              "internalType": "string",
              "name": "description",
              "type": "string"
            },
            {
              "internalType": "uint256",
              "name": "functionalComplexity",
              "type": "uint256"
            },
            {
              "internalType": "uint256",
              "name": "effortEstimation",
              "type": "uint256"
            },
            {
              "internalType": "uint256",
              "name": "timestamp",
              "type": "uint256"
            },
            {
              "internalType": "bool",
              "name": "isDone",
              "type": "bool"
            }
          ],
          "internalType": "struct UserStoryTreasury.UserStory[]",
          "name": "",
          "type": "tuple[]"
        }
      ],
      "stateMutability": "view",
      "type": "function"
    },
    {
      "inputs": [
        {
          "internalType": "uint256",
          "name": "_userStoryNumber",
          "type": "uint256"
        }
      ],
      "name": "retrieveUserStory",
      "outputs": [
        {
          "components": [
            {
              "internalType": "address",
              "name": "creator",
              "type": "address"
            },
            {
              "internalType": "uint256",
              "name": "userStoryNumber",
              "type": "uint256"
            },
            {
              "internalType": "string",
              "name": "description",
              "type": "string"
            },
            {
              "internalType": "uint256",
              "name": "functionalComplexity",
              "type": "uint256"
            },
            {
              "internalType": "uint256",
              "name": "effortEstimation",
              "type": "uint256"
            },
            {
              "internalType": "uint256",
              "name": "timestamp",
              "type": "uint256"
            },
            {
              "internalType": "bool",
              "name": "isDone",
              "type": "bool"
            }
          ],
          "internalType": "struct UserStoryTreasury.UserStory",
          "name": "",
          "type": "tuple"
        }
      ],
      "stateMutability": "view",
      "type": "function"
    },
    {
      "inputs": [
        {
          "internalType": "string",
          "name": "_description",
          "type": "string"
        },
        {
          "internalType": "uint256",
          "name": "_functionalComplexity",
          "type": "uint256"
        },
        {
          "internalType": "uint256",
          "name": "_effortEstimation",
          "type": "uint256"
        }
      ],
      "name": "storeUserStory",
      "outputs": [],
      "stateMutability": "nonpayable",
      "type": "function"
    },
    {
      "inputs": [
        {
          "internalType": "address",
          "name": "newOwner",
          "type": "address"
        }
      ],
      "name": "transferOwnership",
      "outputs": [],
      "stateMutability": "nonpayable",
      "type": "function"
    },
    {
      "inputs": [
        {
          "internalType": "uint256",
          "name": "",
          "type": "uint256"
        }
      ],
      "name": "userStories",
      "outputs": [
        {
          "internalType": "address",
          "name": "creator",
          "type": "address"
        },
        {
          "internalType": "uint256",
          "name": "userStoryNumber",
          "type": "uint256"
        },
        {
          "internalType": "string",
          "name": "description",
          "type": "string"
        },
        {
          "internalType": "uint256",
          "name": "functionalComplexity",
          "type": "uint256"
        },
        {
          "internalType": "uint256",
          "name": "effortEstimation",
          "type": "uint256"
        },
        {
          "internalType": "uint256",
          "name": "timestamp",
          "type": "uint256"
        },
        {
          "internalType": "bool",
          "name": "isDone",
          "type": "bool"
        }
      ],
      "stateMutability": "view",
      "type": "function"
    }
  ],
  "bytecode": "0x608060405234801561001057600080fd5b5061001a3361001f565b61006f565b600080546001600160a01b038381166001600160a01b0319831681178455604051919092169283917f8be0079c531659141344cd1fd0a4f28419497f9722a3daafe3b4186f6b6457e09190a35050565b610b8e8061007e6000396000f3fe608060405234801561001057600080fd5b506004361061007d5760003560e01c80636d230d741161005b5780636d230d74146100d5578063715018a6146100fb5780638da5cb5b14610103578063f2fde38b1461011e57600080fd5b80632e857ae114610082578063673e4d4b14610097578063682232aa146100c0575b600080fd5b61009561009036600461080e565b610131565b005b6100aa6100a53660046108d2565b61029f565b6040516100b7919061099f565b60405180910390f35b6100c8610415565b6040516100b791906109b9565b6100e86100e33660046108d2565b610559565b6040516100b79796959493929190610a1b565b61009561063e565b6000546040516001600160a01b0390911681526020016100b7565b61009561012c366004610a6a565b610674565b6000546001600160a01b031633146101645760405162461bcd60e51b815260040161015b90610a93565b60405180910390fd5b60036040518060e00160405280336001600160a01b0316815260200161018960015490565b81526020808201879052604080830187905260608301869052426080840152600060a090930183905284546001808201875595845292829020845160079094020180546001600160a01b0319166001600160a01b0390941693909317835583820151948301949094559282015180519293919261020c926002850192019061075f565b50606082015160038201556080820151600482015560a0820151600582015560c0909101516006909101805460ff191691151591909117905560015433907f0e648344cff314f7ba4faef3d5ad364cf3067d2e7e3e213e3badcddd2122e4869085858542600060405161028496959493929190610ac8565b60405180910390a261029a600180546001019055565b505050565b6102ea6040518060e0016040528060006001600160a01b0316815260200160008152602001606081526020016000815260200160008152602001600081526020016000151581525090565b600382815481106102fd576102fd610b08565b90600052602060002090600702016040518060e00160405290816000820160009054906101000a90046001600160a01b03166001600160a01b03166001600160a01b031681526020016001820154815260200160028201805461035f90610b1e565b80601f016020809104026020016040519081016040528092919081815260200182805461038b90610b1e565b80156103d85780601f106103ad576101008083540402835291602001916103d8565b820191906000526020600020905b8154815290600101906020018083116103bb57829003601f168201915b505050918352505060038201546020820152600482015460408201526005820154606082015260069091015460ff16151560809091015292915050565b60606003805480602002602001604051908101604052809291908181526020016000905b828210156105505760008481526020908190206040805160e0810182526007860290920180546001600160a01b031683526001810154938301939093526002830180549293929184019161048c90610b1e565b80601f01602080910402602001604051908101604052809291908181526020018280546104b890610b1e565b80156105055780601f106104da57610100808354040283529160200191610505565b820191906000526020600020905b8154815290600101906020018083116104e857829003601f168201915b50505091835250506003820154602080830191909152600483015460408301526005830154606083015260069092015460ff1615156080909101529082526001929092019101610439565b50505050905090565b6003818154811061056957600080fd5b60009182526020909120600790910201805460018201546002830180546001600160a01b03909316945090929161059f90610b1e565b80601f01602080910402602001604051908101604052809291908181526020018280546105cb90610b1e565b80156106185780601f106105ed57610100808354040283529160200191610618565b820191906000526020600020905b8154815290600101906020018083116105fb57829003601f168201915b505050506003830154600484015460058501546006909501549394919390925060ff1687565b6000546001600160a01b031633146106685760405162461bcd60e51b815260040161015b90610a93565b610672600061070f565b565b6000546001600160a01b0316331461069e5760405162461bcd60e51b815260040161015b90610a93565b6001600160a01b0381166107035760405162461bcd60e51b815260206004820152602660248201527f4f776e61626c653a206e6577206f776e657220697320746865207a65726f206160448201526564647265737360d01b606482015260840161015b565b61070c8161070f565b50565b600080546001600160a01b038381166001600160a01b0319831681178455604051919092169283917f8be0079c531659141344cd1fd0a4f28419497f9722a3daafe3b4186f6b6457e09190a35050565b82805461076b90610b1e565b90600052602060002090601f01602090048101928261078d57600085556107d3565b82601f106107a657805160ff19168380011785556107d3565b828001600101855582156107d3579182015b828111156107d35782518255916020019190600101906107b8565b506107df9291506107e3565b5090565b5b808211156107df57600081556001016107e4565b634e487b7160e01b600052604160045260246000fd5b60008060006060848603121561082357600080fd5b833567ffffffffffffffff8082111561083b57600080fd5b818601915086601f83011261084f57600080fd5b813581811115610861576108616107f8565b604051601f8201601f19908116603f01168101908382118183101715610889576108896107f8565b816040528281528960208487010111156108a257600080fd5b82602086016020830137600060208483010152809750505050505060208401359150604084013590509250925092565b6000602082840312156108e457600080fd5b5035919050565b6000815180845260005b81811015610911576020818501810151868301820152016108f5565b81811115610923576000602083870101525b50601f01601f19169290920160200192915050565b60018060a01b038151168252602081015160208301526000604082015160e0604085015261096960e08501826108eb565b9050606083015160608501526080830151608085015260a083015160a085015260c0830151151560c08501528091505092915050565b6020815260006109b26020830184610938565b9392505050565b6000602080830181845280855180835260408601915060408160051b870101925083870160005b82811015610a0e57603f198886030184526109fc858351610938565b945092850192908501906001016109e0565b5092979650505050505050565b60018060a01b038816815286602082015260e060408201526000610a4260e08301886108eb565b90508560608301528460808301528360a083015282151560c083015298975050505050505050565b600060208284031215610a7c57600080fd5b81356001600160a01b03811681146109b257600080fd5b6020808252818101527f4f776e61626c653a2063616c6c6572206973206e6f7420746865206f776e6572604082015260600190565b86815260c060208201526000610ae160c08301886108eb565b905085604083015284606083015283608083015282151560a0830152979650505050505050565b634e487b7160e01b600052603260045260246000fd5b600181811c90821680610b3257607f821691505b602082108103610b5257634e487b7160e01b600052602260045260246000fd5b5091905056fea2646970667358221220bf6f314872aa77b4f1b1c08565bb2f1182b9e873e1d6d57ff94d6030042c055164736f6c634300080d0033",
  "linkReferences": {},
  "deployedLinkReferences": {}
}