{
  "_format": "hh-sol-artifact-1",
  "contractName": "UserStoryTreasuryCoordinator",
  "sourceName": "contracts/UserStoryTreasuryCoordinator.sol",
  "abi": [
    {
      "inputs": [],
      "stateMutability": "nonpayable",
      "type": "constructor"
    },
    {
      "anonymous": false,
      "inputs": [
        {
          "indexed": true,
          "internalType": "address",
          "name": "previousOwner",
          "type": "address"
        },
        {
          "indexed": true,
          "internalType": "address",
          "name": "newOwner",
          "type": "address"
        }
      ],
      "name": "OwnershipTransferred",
      "type": "event"
    },
    {
      "anonymous": false,
      "inputs": [
        {
          "indexed": true,
          "internalType": "address",
          "name": "creator",
          "type": "address"
        },
        {
          "indexed": false,
          "internalType": "uint256",
          "name": "userStoryNumber",
          "type": "uint256"
        },
        {
          "indexed": false,
          "internalType": "string",
          "name": "description",
          "type": "string"
        },
        {
          "indexed": false,
          "internalType": "uint256",
          "name": "functionalComplexity",
          "type": "uint256"
        },
        {
          "indexed": false,
          "internalType": "uint256",
          "name": "effortEstimation",
          "type": "uint256"
        },
        {
          "indexed": false,
          "internalType": "uint256",
          "name": "timestamp",
          "type": "uint256"
        },
        {
          "indexed": false,
          "internalType": "bool",
          "name": "isDone",
          "type": "bool"
        }
      ],
      "name": "UserStoryCreated",
      "type": "event"
    },
    {
      "inputs": [],
      "name": "admin",
      "outputs": [
        {
          "internalType": "address",
          "name": "",
          "type": "address"
        }
      ],
      "stateMutability": "view",
      "type": "function"
    },
    {
      "inputs": [],
      "name": "owner",
      "outputs": [
        {
          "internalType": "address",
          "name": "",
          "type": "address"
        }
      ],
      "stateMutability": "view",
      "type": "function"
    },
    {
      "inputs": [],
      "name": "renounceOwnership",
      "outputs": [],
      "stateMutability": "nonpayable",
      "type": "function"
    },
    {
      "inputs": [],
      "name": "retrieveAllUserStories",
      "outputs": [
        {
          "components": [
            {
              "internalType": "address",
              "name": "creator",
              "type": "address"
            },
            {
              "internalType": "uint256",
              "name": "userStoryNumber",
              "type": "uint256"
            },
            {
              "internalType": "string",
              "name": "description",
              "type": "string"
            },
            {
              "internalType": "uint256",
              "name": "functionalComplexity",
              "type": "uint256"
            },
            {
              "internalType": "uint256",
              "name": "effortEstimation",
              "type": "uint256"
            },
            {
              "internalType": "uint256",
              "name": "timestamp",
              "type": "uint256"
            },
            {
              "internalType": "bool",
              "name": "isDone",
              "type": "bool"
            }
          ],
          "internalType": "struct IUserStoryTreasury.UserStory[]",
          "name": "",
          "type": "tuple[]"
        }
      ],
      "stateMutability": "view",
      "type": "function"
    },
    {
      "inputs": [
        {
          "internalType": "uint256",
          "name": "_userStoryNumber",
          "type": "uint256"
        }
      ],
      "name": "retrieveUserStory",
      "outputs": [
        {
          "components": [
            {
              "internalType": "address",
              "name": "creator",
              "type": "address"
            },
            {
              "internalType": "uint256",
              "name": "userStoryNumber",
              "type": "uint256"
            },
            {
              "internalType": "string",
              "name": "description",
              "type": "string"
            },
            {
              "internalType": "uint256",
              "name": "functionalComplexity",
              "type": "uint256"
            },
            {
              "internalType": "uint256",
              "name": "effortEstimation",
              "type": "uint256"
            },
            {
              "internalType": "uint256",
              "name": "timestamp",
              "type": "uint256"
            },
            {
              "internalType": "bool",
              "name": "isDone",
              "type": "bool"
            }
          ],
          "internalType": "struct IUserStoryTreasury.UserStory",
          "name": "",
          "type": "tuple"
        }
      ],
      "stateMutability": "view",
      "type": "function"
    },
    {
      "inputs": [
        {
          "internalType": "string",
          "name": "_description",
          "type": "string"
        },
        {
          "internalType": "uint256",
          "name": "_functionalComplexity",
          "type": "uint256"
        },
        {
          "internalType": "uint256",
          "name": "_effortEstimation",
          "type": "uint256"
        }
      ],
      "name": "storeUserStory",
      "outputs": [
        {
          "components": [
            {
              "internalType": "address",
              "name": "creator",
              "type": "address"
            },
            {
              "internalType": "uint256",
              "name": "userStoryNumber",
              "type": "uint256"
            },
            {
              "internalType": "string",
              "name": "description",
              "type": "string"
            },
            {
              "internalType": "uint256",
              "name": "functionalComplexity",
              "type": "uint256"
            },
            {
              "internalType": "uint256",
              "name": "effortEstimation",
              "type": "uint256"
            },
            {
              "internalType": "uint256",
              "name": "timestamp",
              "type": "uint256"
            },
            {
              "internalType": "bool",
              "name": "isDone",
              "type": "bool"
            }
          ],
          "internalType": "struct IUserStoryTreasury.UserStory",
          "name": "",
          "type": "tuple"
        }
      ],
      "stateMutability": "nonpayable",
      "type": "function"
    },
    {
      "inputs": [
        {
          "internalType": "address",
          "name": "newOwner",
          "type": "address"
        }
      ],
      "name": "transferOwnership",
      "outputs": [],
      "stateMutability": "nonpayable",
      "type": "function"
    },
    {
      "inputs": [
        {
          "internalType": "address",
          "name": "_userStoryTreasury",
          "type": "address"
        }
      ],
      "name": "upgradeUserStoryTreasury",
      "outputs": [],
      "stateMutability": "nonpayable",
      "type": "function"
    },
    {
      "inputs": [],
      "name": "userStoryTreasury",
      "outputs": [
        {
          "internalType": "contract IUserStoryTreasury",
          "name": "",
          "type": "address"
        }
      ],
      "stateMutability": "view",
      "type": "function"
    }
  ],
  "bytecode": "0x608060405234801561001057600080fd5b5061001a33610031565b600180546001600160a01b03191633179055610081565b600080546001600160a01b038381166001600160a01b0319831681178455604051919092169283917f8be0079c531659141344cd1fd0a4f28419497f9722a3daafe3b4186f6b6457e09190a35050565b610a46806100906000396000f3fe608060405234801561001057600080fd5b50600436106100935760003560e01c8063715018a611610066578063715018a6146101105780638da5cb5b1461011a578063ea0a43781461012b578063f2fde38b1461013e578063f851a4401461015157600080fd5b8063265e6c21146100985780632e857ae1146100c85780635c0d46d9146100e8578063673e4d4b146100fd575b600080fd5b6002546100ab906001600160a01b031681565b6040516001600160a01b0390911681526020015b60405180910390f35b6100db6100d63660046105aa565b610164565b6040516100bf9190610700565b6100f0610222565b6040516100bf919061071a565b6100db61010b36600461077c565b610299565b610118610318565b005b6000546001600160a01b03166100ab565b6101186101393660046107aa565b61034e565b61011861014c3660046107aa565b6103df565b6001546100ab906001600160a01b031681565b61016c6104ca565b6000546001600160a01b0316331461019f5760405162461bcd60e51b8152600401610196906107c7565b60405180910390fd5b600254604051632e857ae160e01b81526001600160a01b0390911690632e857ae1906101d3908790879087906004016107fc565b6000604051808303816000875af11580156101f2573d6000803e3d6000fd5b505050506040513d6000823e601f3d908101601f1916820160405261021a9190810190610918565b949350505050565b60025460408051635c0d46d960e01b815290516060926001600160a01b031691635c0d46d99160048083019260009291908290030181865afa15801561026c573d6000803e3d6000fd5b505050506040513d6000823e601f3d908101601f19168201604052610294919081019061094d565b905090565b6102a16104ca565b60025460405163673e4d4b60e01b8152600481018490526001600160a01b039091169063673e4d4b90602401600060405180830381865afa1580156102ea573d6000803e3d6000fd5b505050506040513d6000823e601f3d908101601f191682016040526103129190810190610918565b92915050565b6000546001600160a01b031633146103425760405162461bcd60e51b8152600401610196906107c7565b61034c600061047a565b565b6001546001600160a01b031633146103bd5760405162461bcd60e51b815260206004820152602c60248201527f4f6e6c792041646d696e2063616e20757067726164652074686520557365725360448201526b746f7279547265617375727960a01b6064820152608401610196565b600280546001600160a01b0319166001600160a01b0392909216919091179055565b6000546001600160a01b031633146104095760405162461bcd60e51b8152600401610196906107c7565b6001600160a01b03811661046e5760405162461bcd60e51b815260206004820152602660248201527f4f776e61626c653a206e6577206f776e657220697320746865207a65726f206160448201526564647265737360d01b6064820152608401610196565b6104778161047a565b50565b600080546001600160a01b038381166001600160a01b0319831681178455604051919092169283917f8be0079c531659141344cd1fd0a4f28419497f9722a3daafe3b4186f6b6457e09190a35050565b6040518060e0016040528060006001600160a01b0316815260200160008152602001606081526020016000815260200160008152602001600081526020016000151581525090565b634e487b7160e01b600052604160045260246000fd5b60405160e0810167ffffffffffffffff8111828210171561054b5761054b610512565b60405290565b604051601f8201601f1916810167ffffffffffffffff8111828210171561057a5761057a610512565b604052919050565b600067ffffffffffffffff82111561059c5761059c610512565b50601f01601f191660200190565b6000806000606084860312156105bf57600080fd5b833567ffffffffffffffff8111156105d657600080fd5b8401601f810186136105e757600080fd5b80356105fa6105f582610582565b610551565b81815287602083850101111561060f57600080fd5b8160208401602083013760006020838301015280955050505060208401359150604084013590509250925092565b60005b83811015610658578181015183820152602001610640565b83811115610667576000848401525b50505050565b6000815180845261068581602086016020860161063d565b601f01601f19169290920160200192915050565b60018060a01b038151168252602081015160208301526000604082015160e060408501526106ca60e085018261066d565b9050606083015160608501526080830151608085015260a083015160a085015260c0830151151560c08501528091505092915050565b6020815260006107136020830184610699565b9392505050565b6000602080830181845280855180835260408601915060408160051b870101925083870160005b8281101561076f57603f1988860301845261075d858351610699565b94509285019290850190600101610741565b5092979650505050505050565b60006020828403121561078e57600080fd5b5035919050565b6001600160a01b038116811461047757600080fd5b6000602082840312156107bc57600080fd5b813561071381610795565b6020808252818101527f4f776e61626c653a2063616c6c6572206973206e6f7420746865206f776e6572604082015260600190565b60608152600061080f606083018661066d565b60208301949094525060400152919050565b805161082c81610795565b919050565b600082601f83011261084257600080fd5b81516108506105f582610582565b81815284602083860101111561086557600080fd5b61021a82602083016020870161063d565b8051801515811461082c57600080fd5b600060e0828403121561089857600080fd5b6108a0610528565b90506108ab82610821565b815260208201516020820152604082015167ffffffffffffffff8111156108d157600080fd5b6108dd84828501610831565b604083015250606082015160608201526080820151608082015260a082015160a082015261090d60c08301610876565b60c082015292915050565b60006020828403121561092a57600080fd5b815167ffffffffffffffff81111561094157600080fd5b61021a84828501610886565b6000602080838503121561096057600080fd5b825167ffffffffffffffff8082111561097857600080fd5b818501915085601f83011261098c57600080fd5b81518181111561099e5761099e610512565b8060051b6109ad858201610551565b91825283810185019185810190898411156109c757600080fd5b86860192505b83831015610a03578251858111156109e55760008081fd5b6109f38b89838a0101610886565b83525091860191908601906109cd565b999850505050505050505056fea2646970667358221220a0a2077cd4c92baf291b12fba3a879845fba8f7a91b5a70d0c0844212ea662aa64736f6c634300080d0033",
  "linkReferences": {},
  "deployedLinkReferences": {}
}