{
  "_format": "hh-sol-artifact-1",
  "contractName": "UserStoryTreasury",
  "sourceName": "contracts/user-story-treasury/UserStoryTreasury.sol",
  "abi": [
    {
      "inputs": [
        {
          "internalType": "string",
          "name": "sentDescription",
          "type": "string"
        },
        {
          "internalType": "uint256",
          "name": "sentFunctionalComplexity",
          "type": "uint256"
        },
        {
          "internalType": "uint256",
          "name": "sentEffortEstimation",
          "type": "uint256"
        }
      ],
      "name": "InvalidUserStory",
      "type": "error"
    },
    {
      "anonymous": false,
      "inputs": [
        {
          "indexed": true,
          "internalType": "address",
          "name": "previousOwner",
          "type": "address"
        },
        {
          "indexed": true,
          "internalType": "address",
          "name": "newOwner",
          "type": "address"
        }
      ],
      "name": "OwnershipTransferred",
      "type": "event"
    },
    {
      "anonymous": false,
      "inputs": [
        {
          "indexed": true,
          "internalType": "address",
          "name": "creator",
          "type": "address"
        },
        {
          "indexed": false,
          "internalType": "uint256",
          "name": "userStoryNumber",
          "type": "uint256"
        },
        {
          "indexed": false,
          "internalType": "string",
          "name": "description",
          "type": "string"
        },
        {
          "indexed": false,
          "internalType": "uint256",
          "name": "functionalComplexity",
          "type": "uint256"
        },
        {
          "indexed": false,
          "internalType": "uint256",
          "name": "effortEstimation",
          "type": "uint256"
        },
        {
          "indexed": false,
          "internalType": "uint256",
          "name": "timestamp",
          "type": "uint256"
        },
        {
          "indexed": false,
          "internalType": "bool",
          "name": "isDone",
          "type": "bool"
        }
      ],
      "name": "UserStoryCreated",
      "type": "event"
    },
    {
      "inputs": [],
      "name": "owner",
      "outputs": [
        {
          "internalType": "address",
          "name": "",
          "type": "address"
        }
      ],
      "stateMutability": "view",
      "type": "function"
    },
    {
      "inputs": [],
      "name": "renounceOwnership",
      "outputs": [],
      "stateMutability": "nonpayable",
      "type": "function"
    },
    {
      "inputs": [],
      "name": "retrieveAllUserStories",
      "outputs": [
        {
          "components": [
            {
              "internalType": "address",
              "name": "creator",
              "type": "address"
            },
            {
              "internalType": "uint256",
              "name": "userStoryNumber",
              "type": "uint256"
            },
            {
              "internalType": "string",
              "name": "description",
              "type": "string"
            },
            {
              "internalType": "uint256",
              "name": "functionalComplexity",
              "type": "uint256"
            },
            {
              "internalType": "uint256",
              "name": "effortEstimation",
              "type": "uint256"
            },
            {
              "internalType": "uint256",
              "name": "timestamp",
              "type": "uint256"
            },
            {
              "internalType": "bool",
              "name": "isDone",
              "type": "bool"
            }
          ],
          "internalType": "struct IUserStoryTreasury.UserStory[]",
          "name": "",
          "type": "tuple[]"
        }
      ],
      "stateMutability": "view",
      "type": "function"
    },
    {
      "inputs": [
        {
          "internalType": "uint256",
          "name": "_userStoryNumber",
          "type": "uint256"
        }
      ],
      "name": "retrieveUserStory",
      "outputs": [
        {
          "components": [
            {
              "internalType": "address",
              "name": "creator",
              "type": "address"
            },
            {
              "internalType": "uint256",
              "name": "userStoryNumber",
              "type": "uint256"
            },
            {
              "internalType": "string",
              "name": "description",
              "type": "string"
            },
            {
              "internalType": "uint256",
              "name": "functionalComplexity",
              "type": "uint256"
            },
            {
              "internalType": "uint256",
              "name": "effortEstimation",
              "type": "uint256"
            },
            {
              "internalType": "uint256",
              "name": "timestamp",
              "type": "uint256"
            },
            {
              "internalType": "bool",
              "name": "isDone",
              "type": "bool"
            }
          ],
          "internalType": "struct IUserStoryTreasury.UserStory",
          "name": "",
          "type": "tuple"
        }
      ],
      "stateMutability": "view",
      "type": "function"
    },
    {
      "inputs": [
        {
          "internalType": "string",
          "name": "_description",
          "type": "string"
        },
        {
          "internalType": "uint256",
          "name": "_functionalComplexity",
          "type": "uint256"
        },
        {
          "internalType": "uint256",
          "name": "_effortEstimation",
          "type": "uint256"
        }
      ],
      "name": "storeUserStory",
      "outputs": [
        {
          "components": [
            {
              "internalType": "address",
              "name": "creator",
              "type": "address"
            },
            {
              "internalType": "uint256",
              "name": "userStoryNumber",
              "type": "uint256"
            },
            {
              "internalType": "string",
              "name": "description",
              "type": "string"
            },
            {
              "internalType": "uint256",
              "name": "functionalComplexity",
              "type": "uint256"
            },
            {
              "internalType": "uint256",
              "name": "effortEstimation",
              "type": "uint256"
            },
            {
              "internalType": "uint256",
              "name": "timestamp",
              "type": "uint256"
            },
            {
              "internalType": "bool",
              "name": "isDone",
              "type": "bool"
            }
          ],
          "internalType": "struct IUserStoryTreasury.UserStory",
          "name": "",
          "type": "tuple"
        }
      ],
      "stateMutability": "nonpayable",
      "type": "function"
    },
    {
      "inputs": [
        {
          "internalType": "address",
          "name": "newOwner",
          "type": "address"
        }
      ],
      "name": "transferOwnership",
      "outputs": [],
      "stateMutability": "nonpayable",
      "type": "function"
    },
    {
      "inputs": [
        {
          "internalType": "uint256",
          "name": "",
          "type": "uint256"
        }
      ],
      "name": "userStories",
      "outputs": [
        {
          "internalType": "address",
          "name": "creator",
          "type": "address"
        },
        {
          "internalType": "uint256",
          "name": "userStoryNumber",
          "type": "uint256"
        },
        {
          "internalType": "string",
          "name": "description",
          "type": "string"
        },
        {
          "internalType": "uint256",
          "name": "functionalComplexity",
          "type": "uint256"
        },
        {
          "internalType": "uint256",
          "name": "effortEstimation",
          "type": "uint256"
        },
        {
          "internalType": "uint256",
          "name": "timestamp",
          "type": "uint256"
        },
        {
          "internalType": "bool",
          "name": "isDone",
          "type": "bool"
        }
      ],
      "stateMutability": "view",
      "type": "function"
    }
  ],
  "bytecode": "0x608060405234801561001057600080fd5b5061001a3361001f565b61006f565b600080546001600160a01b038381166001600160a01b0319831681178455604051919092169283917f8be0079c531659141344cd1fd0a4f28419497f9722a3daafe3b4186f6b6457e09190a35050565b610c1e8061007e6000396000f3fe608060405234801561001057600080fd5b506004361061007d5760003560e01c80636d230d741161005b5780636d230d74146100d3578063715018a6146100f95780638da5cb5b14610103578063f2fde38b1461011e57600080fd5b80632e857ae1146100825780635c0d46d9146100ab578063673e4d4b146100c0575b600080fd5b6100956100903660046108b5565b610131565b6040516100a29190610a2d565b60405180910390f35b6100b361032b565b6040516100a29190610a40565b6100956100ce366004610aa2565b61046f565b6100e66100e1366004610aa2565b6105a2565b6040516100a29796959493929190610abb565b610101610687565b005b6000546040516001600160a01b0390911681526020016100a2565b61010161012c366004610b0a565b61069b565b6101396107be565b610141610714565b83518490158061014f575083155b80610158575082155b1561018557848484604051636b4ef4cb60e11b815260040161017c93929190610b33565b60405180910390fd5b60006040518060e00160405280336001600160a01b031681526020016101aa60015490565b81526020808201899052604080830189905260608301889052426080840152600060a090930183905260038054600181018255935283517fc2575a0e9e593c00f959f8c92f12db2869c3395a3b0502d05e2516446f71f85b600790940293840180546001600160a01b0319166001600160a01b03909216919091178155848301517fc2575a0e9e593c00f959f8c92f12db2869c3395a3b0502d05e2516446f71f85c8501559084015180519495508594919361028d937fc2575a0e9e593c00f959f8c92f12db2869c3395a3b0502d05e2516446f71f85d90910192910190610806565b50606082015160038201556080820151600482015560a0820151600582015560c0909101516006909101805460ff191691151591909117905560015433907f0e648344cff314f7ba4faef3d5ad364cf3067d2e7e3e213e3badcddd2122e4869088888842600060405161030596959493929190610b58565b60405180910390a261031b600180546001019055565b91506103249050565b9392505050565b60606003805480602002602001604051908101604052809291908181526020016000905b828210156104665760008481526020908190206040805160e0810182526007860290920180546001600160a01b03168352600181015493830193909352600283018054929392918401916103a290610b98565b80601f01602080910402602001604051908101604052809291908181526020018280546103ce90610b98565b801561041b5780601f106103f05761010080835404028352916020019161041b565b820191906000526020600020905b8154815290600101906020018083116103fe57829003601f168201915b50505091835250506003820154602080830191909152600483015460408301526005830154606083015260069092015460ff161515608090910152908252600192909201910161034f565b50505050905090565b6104776107be565b6003828154811061048a5761048a610bd2565b90600052602060002090600702016040518060e00160405290816000820160009054906101000a90046001600160a01b03166001600160a01b03166001600160a01b03168152602001600182015481526020016002820180546104ec90610b98565b80601f016020809104026020016040519081016040528092919081815260200182805461051890610b98565b80156105655780601f1061053a57610100808354040283529160200191610565565b820191906000526020600020905b81548152906001019060200180831161054857829003601f168201915b505050918352505060038201546020820152600482015460408201526005820154606082015260069091015460ff16151560809091015292915050565b600381815481106105b257600080fd5b60009182526020909120600790910201805460018201546002830180546001600160a01b0390931694509092916105e890610b98565b80601f016020809104026020016040519081016040528092919081815260200182805461061490610b98565b80156106615780601f1061063657610100808354040283529160200191610661565b820191906000526020600020905b81548152906001019060200180831161064457829003601f168201915b505050506003830154600484015460058501546006909501549394919390925060ff1687565b61068f610714565b610699600061076e565b565b6106a3610714565b6001600160a01b0381166107085760405162461bcd60e51b815260206004820152602660248201527f4f776e61626c653a206e6577206f776e657220697320746865207a65726f206160448201526564647265737360d01b606482015260840161017c565b6107118161076e565b50565b6000546001600160a01b031633146106995760405162461bcd60e51b815260206004820181905260248201527f4f776e61626c653a2063616c6c6572206973206e6f7420746865206f776e6572604482015260640161017c565b600080546001600160a01b038381166001600160a01b0319831681178455604051919092169283917f8be0079c531659141344cd1fd0a4f28419497f9722a3daafe3b4186f6b6457e09190a35050565b6040518060e0016040528060006001600160a01b0316815260200160008152602001606081526020016000815260200160008152602001600081526020016000151581525090565b82805461081290610b98565b90600052602060002090601f016020900481019282610834576000855561087a565b82601f1061084d57805160ff191683800117855561087a565b8280016001018555821561087a579182015b8281111561087a57825182559160200191906001019061085f565b5061088692915061088a565b5090565b5b80821115610886576000815560010161088b565b634e487b7160e01b600052604160045260246000fd5b6000806000606084860312156108ca57600080fd5b833567ffffffffffffffff808211156108e257600080fd5b818601915086601f8301126108f657600080fd5b8135818111156109085761090861089f565b604051601f8201601f19908116603f011681019083821181831017156109305761093061089f565b8160405282815289602084870101111561094957600080fd5b82602086016020830137600060208483010152809750505050505060208401359150604084013590509250925092565b6000815180845260005b8181101561099f57602081850181015186830182015201610983565b818111156109b1576000602083870101525b50601f01601f19169290920160200192915050565b60018060a01b038151168252602081015160208301526000604082015160e060408501526109f760e0850182610979565b9050606083015160608501526080830151608085015260a083015160a085015260c0830151151560c08501528091505092915050565b60208152600061032460208301846109c6565b6000602080830181845280855180835260408601915060408160051b870101925083870160005b82811015610a9557603f19888603018452610a838583516109c6565b94509285019290850190600101610a67565b5092979650505050505050565b600060208284031215610ab457600080fd5b5035919050565b60018060a01b038816815286602082015260e060408201526000610ae260e0830188610979565b90508560608301528460808301528360a083015282151560c083015298975050505050505050565b600060208284031215610b1c57600080fd5b81356001600160a01b038116811461032457600080fd5b606081526000610b466060830186610979565b60208301949094525060400152919050565b86815260c060208201526000610b7160c0830188610979565b905085604083015284606083015283608083015282151560a0830152979650505050505050565b600181811c90821680610bac57607f821691505b602082108103610bcc57634e487b7160e01b600052602260045260246000fd5b50919050565b634e487b7160e01b600052603260045260246000fdfea26469706673582212206c67f92214c70bf7b11d35feb2836117be5165bf50e396bcca235b64e470dd8a64736f6c634300080d0033",
  "linkReferences": {},
  "deployedLinkReferences": {}
}